{
  "contractName": "BaseERC721BlindBox",
  "abi": [
    {
      "inputs": [],
      "stateMutability": "nonpayable",
      "type": "constructor"
    },
    {
      "anonymous": false,
      "inputs": [
        {
          "indexed": true,
          "internalType": "address",
          "name": "owner",
          "type": "address"
        },
        {
          "indexed": true,
          "internalType": "address",
          "name": "approved",
          "type": "address"
        },
        {
          "indexed": true,
          "internalType": "uint256",
          "name": "tokenId",
          "type": "uint256"
        }
      ],
      "name": "Approval",
      "type": "event"
    },
    {
      "anonymous": false,
      "inputs": [
        {
          "indexed": true,
          "internalType": "address",
          "name": "owner",
          "type": "address"
        },
        {
          "indexed": true,
          "internalType": "address",
          "name": "operator",
          "type": "address"
        },
        {
          "indexed": false,
          "internalType": "bool",
          "name": "approved",
          "type": "bool"
        }
      ],
      "name": "ApprovalForAll",
      "type": "event"
    },
    {
      "anonymous": false,
      "inputs": [
        {
          "indexed": true,
          "internalType": "address",
          "name": "previousOwner",
          "type": "address"
        },
        {
          "indexed": true,
          "internalType": "address",
          "name": "newOwner",
          "type": "address"
        }
      ],
      "name": "OwnershipTransferred",
      "type": "event"
    },
    {
      "anonymous": false,
      "inputs": [
        {
          "indexed": true,
          "internalType": "address",
          "name": "from",
          "type": "address"
        },
        {
          "indexed": true,
          "internalType": "address",
          "name": "to",
          "type": "address"
        },
        {
          "indexed": true,
          "internalType": "uint256",
          "name": "tokenId",
          "type": "uint256"
        }
      ],
      "name": "Transfer",
      "type": "event"
    },
    {
      "inputs": [
        {
          "internalType": "address",
          "name": "to",
          "type": "address"
        },
        {
          "internalType": "uint256",
          "name": "tokenId",
          "type": "uint256"
        }
      ],
      "name": "approve",
      "outputs": [],
      "stateMutability": "nonpayable",
      "type": "function"
    },
    {
      "inputs": [
        {
          "internalType": "address",
          "name": "owner",
          "type": "address"
        }
      ],
      "name": "balanceOf",
      "outputs": [
        {
          "internalType": "uint256",
          "name": "",
          "type": "uint256"
        }
      ],
      "stateMutability": "view",
      "type": "function"
    },
    {
      "inputs": [
        {
          "internalType": "uint256",
          "name": "tokenId",
          "type": "uint256"
        }
      ],
      "name": "getApproved",
      "outputs": [
        {
          "internalType": "address",
          "name": "",
          "type": "address"
        }
      ],
      "stateMutability": "view",
      "type": "function"
    },
    {
      "inputs": [
        {
          "internalType": "address",
          "name": "owner",
          "type": "address"
        },
        {
          "internalType": "address",
          "name": "operator",
          "type": "address"
        }
      ],
      "name": "isApprovedForAll",
      "outputs": [
        {
          "internalType": "bool",
          "name": "",
          "type": "bool"
        }
      ],
      "stateMutability": "view",
      "type": "function"
    },
    {
      "inputs": [],
      "name": "name",
      "outputs": [
        {
          "internalType": "string",
          "name": "",
          "type": "string"
        }
      ],
      "stateMutability": "view",
      "type": "function"
    },
    {
      "inputs": [],
      "name": "owner",
      "outputs": [
        {
          "internalType": "address",
          "name": "",
          "type": "address"
        }
      ],
      "stateMutability": "view",
      "type": "function"
    },
    {
      "inputs": [
        {
          "internalType": "uint256",
          "name": "tokenId",
          "type": "uint256"
        }
      ],
      "name": "ownerOf",
      "outputs": [
        {
          "internalType": "address",
          "name": "",
          "type": "address"
        }
      ],
      "stateMutability": "view",
      "type": "function"
    },
    {
      "inputs": [],
      "name": "renounceOwnership",
      "outputs": [],
      "stateMutability": "nonpayable",
      "type": "function"
    },
    {
      "inputs": [
        {
          "internalType": "address",
          "name": "from",
          "type": "address"
        },
        {
          "internalType": "address",
          "name": "to",
          "type": "address"
        },
        {
          "internalType": "uint256",
          "name": "tokenId",
          "type": "uint256"
        }
      ],
      "name": "safeTransferFrom",
      "outputs": [],
      "stateMutability": "nonpayable",
      "type": "function"
    },
    {
      "inputs": [
        {
          "internalType": "address",
          "name": "from",
          "type": "address"
        },
        {
          "internalType": "address",
          "name": "to",
          "type": "address"
        },
        {
          "internalType": "uint256",
          "name": "tokenId",
          "type": "uint256"
        },
        {
          "internalType": "bytes",
          "name": "_data",
          "type": "bytes"
        }
      ],
      "name": "safeTransferFrom",
      "outputs": [],
      "stateMutability": "nonpayable",
      "type": "function"
    },
    {
      "inputs": [
        {
          "internalType": "address",
          "name": "operator",
          "type": "address"
        },
        {
          "internalType": "bool",
          "name": "approved",
          "type": "bool"
        }
      ],
      "name": "setApprovalForAll",
      "outputs": [],
      "stateMutability": "nonpayable",
      "type": "function"
    },
    {
      "inputs": [
        {
          "internalType": "bytes4",
          "name": "interfaceId",
          "type": "bytes4"
        }
      ],
      "name": "supportsInterface",
      "outputs": [
        {
          "internalType": "bool",
          "name": "",
          "type": "bool"
        }
      ],
      "stateMutability": "view",
      "type": "function"
    },
    {
      "inputs": [],
      "name": "symbol",
      "outputs": [
        {
          "internalType": "string",
          "name": "",
          "type": "string"
        }
      ],
      "stateMutability": "view",
      "type": "function"
    },
    {
      "inputs": [
        {
          "internalType": "address",
          "name": "from",
          "type": "address"
        },
        {
          "internalType": "address",
          "name": "to",
          "type": "address"
        },
        {
          "internalType": "uint256",
          "name": "tokenId",
          "type": "uint256"
        }
      ],
      "name": "transferFrom",
      "outputs": [],
      "stateMutability": "nonpayable",
      "type": "function"
    },
    {
      "inputs": [
        {
          "internalType": "address",
          "name": "newOwner",
          "type": "address"
        }
      ],
      "name": "transferOwnership",
      "outputs": [],
      "stateMutability": "nonpayable",
      "type": "function"
    },
    {
      "inputs": [
        {
          "internalType": "bool",
          "name": "_status",
          "type": "bool"
        }
      ],
      "name": "setBlindBoxOpened",
      "outputs": [],
      "stateMutability": "nonpayable",
      "type": "function"
    },
    {
      "inputs": [
        {
          "internalType": "uint256",
          "name": "tokenId",
          "type": "uint256"
        }
      ],
      "name": "tokenURI",
      "outputs": [
        {
          "internalType": "string",
          "name": "",
          "type": "string"
        }
      ],
      "stateMutability": "view",
      "type": "function"
    }
  ],
  "bytecode": "0x60806040526000600660146101000a81548160ff02191690831515021790555060405180606001604052806035815260200162002cd5603591396007908051906020019062000050929190620001f3565b503480156200005e57600080fd5b506040518060400160405280600881526020017f47616d654974656d0000000000000000000000000000000000000000000000008152506040518060400160405280600381526020017f49544d00000000000000000000000000000000000000000000000000000000008152508160009080519060200190620000e3929190620001f3565b508060019080519060200190620000fc929190620001f3565b5050506200011f620001136200012560201b60201c565b6200012d60201b60201c565b62000308565b600033905090565b6000600660009054906101000a900473ffffffffffffffffffffffffffffffffffffffff16905081600660006101000a81548173ffffffffffffffffffffffffffffffffffffffff021916908373ffffffffffffffffffffffffffffffffffffffff1602179055508173ffffffffffffffffffffffffffffffffffffffff168173ffffffffffffffffffffffffffffffffffffffff167f8be0079c531659141344cd1fd0a4f28419497f9722a3daafe3b4186f6b6457e060405160405180910390a35050565b8280546200020190620002a3565b90600052602060002090601f01602090048101928262000225576000855562000271565b82601f106200024057805160ff191683800117855562000271565b8280016001018555821562000271579182015b828111156200027057825182559160200191906001019062000253565b5b50905062000280919062000284565b5090565b5b808211156200029f57600081600090555060010162000285565b5090565b60006002820490506001821680620002bc57607f821691505b60208210811415620002d357620002d2620002d9565b5b50919050565b7f4e487b7100000000000000000000000000000000000000000000000000000000600052602260045260246000fd5b6129bd80620003186000396000f3fe608060405234801561001057600080fd5b506004361061010b5760003560e01c8063715018a6116100a2578063b88d4fde11610071578063b88d4fde146102a4578063c87b56dd146102c0578063e6a9e577146102f0578063e985e9c51461030c578063f2fde38b1461033c5761010b565b8063715018a6146102425780638da5cb5b1461024c57806395d89b411461026a578063a22cb465146102885761010b565b806323b872dd116100de57806323b872dd146101aa57806342842e0e146101c65780636352211e146101e257806370a08231146102125761010b565b806301ffc9a71461011057806306fdde0314610140578063081812fc1461015e578063095ea7b31461018e575b600080fd5b61012a60048036038101906101259190611af3565b610358565b6040516101379190611eed565b60405180910390f35b61014861043a565b6040516101559190611f08565b60405180910390f35b61017860048036038101906101739190611b4d565b6104cc565b6040516101859190611e86565b60405180910390f35b6101a860048036038101906101a39190611a86565b610551565b005b6101c460048036038101906101bf9190611970565b610669565b005b6101e060048036038101906101db9190611970565b6106c9565b005b6101fc60048036038101906101f79190611b4d565b6106e9565b6040516102099190611e86565b60405180910390f35b61022c60048036038101906102279190611903565b61079b565b60405161023991906120ea565b60405180910390f35b61024a610853565b005b6102546108db565b6040516102619190611e86565b60405180910390f35b610272610905565b60405161027f9190611f08565b60405180910390f35b6102a2600480360381019061029d9190611a46565b610997565b005b6102be60048036038101906102b991906119c3565b6109ad565b005b6102da60048036038101906102d59190611b4d565b610a0f565b6040516102e79190611f08565b60405180910390f35b61030a60048036038101906103059190611ac6565b610b5e565b005b61032660048036038101906103219190611930565b610bf7565b6040516103339190611eed565b60405180910390f35b61035660048036038101906103519190611903565b610c8b565b005b60007f80ac58cd000000000000000000000000000000000000000000000000000000007bffffffffffffffffffffffffffffffffffffffffffffffffffffffff1916827bffffffffffffffffffffffffffffffffffffffffffffffffffffffff1916148061042357507f5b5e139f000000000000000000000000000000000000000000000000000000007bffffffffffffffffffffffffffffffffffffffffffffffffffffffff1916827bffffffffffffffffffffffffffffffffffffffffffffffffffffffff1916145b80610433575061043282610d83565b5b9050919050565b6060600080546104499061230f565b80601f01602080910402602001604051908101604052809291908181526020018280546104759061230f565b80156104c25780601f10610497576101008083540402835291602001916104c2565b820191906000526020600020905b8154815290600101906020018083116104a557829003601f168201915b5050505050905090565b60006104d782610ded565b610516576040517f08c379a000000000000000000000000000000000000000000000000000000000815260040161050d9061204a565b60405180910390fd5b6004600083815260200190815260200160002060009054906101000a900473ffffffffffffffffffffffffffffffffffffffff169050919050565b600061055c826106e9565b90508073ffffffffffffffffffffffffffffffffffffffff168373ffffffffffffffffffffffffffffffffffffffff1614156105cd576040517f08c379a00000000000000000000000000000000000000000000000000000000081526004016105c4906120aa565b60405180910390fd5b8073ffffffffffffffffffffffffffffffffffffffff166105ec610e59565b73ffffffffffffffffffffffffffffffffffffffff16148061061b575061061a81610615610e59565b610bf7565b5b61065a576040517f08c379a000000000000000000000000000000000000000000000000000000000815260040161065190611fea565b60405180910390fd5b6106648383610e61565b505050565b61067a610674610e59565b82610f1a565b6106b9576040517f08c379a00000000000000000000000000000000000000000000000000000000081526004016106b0906120ca565b60405180910390fd5b6106c4838383610ff8565b505050565b6106e4838383604051806020016040528060008152506109ad565b505050565b6000806002600084815260200190815260200160002060009054906101000a900473ffffffffffffffffffffffffffffffffffffffff169050600073ffffffffffffffffffffffffffffffffffffffff168173ffffffffffffffffffffffffffffffffffffffff161415610792576040517f08c379a00000000000000000000000000000000000000000000000000000000081526004016107899061202a565b60405180910390fd5b80915050919050565b60008073ffffffffffffffffffffffffffffffffffffffff168273ffffffffffffffffffffffffffffffffffffffff16141561080c576040517f08c379a00000000000000000000000000000000000000000000000000000000081526004016108039061200a565b60405180910390fd5b600360008373ffffffffffffffffffffffffffffffffffffffff1673ffffffffffffffffffffffffffffffffffffffff168152602001908152602001600020549050919050565b61085b610e59565b73ffffffffffffffffffffffffffffffffffffffff166108796108db565b73ffffffffffffffffffffffffffffffffffffffff16146108cf576040517f08c379a00000000000000000000000000000000000000000000000000000000081526004016108c69061206a565b60405180910390fd5b6108d9600061125f565b565b6000600660009054906101000a900473ffffffffffffffffffffffffffffffffffffffff16905090565b6060600180546109149061230f565b80601f01602080910402602001604051908101604052809291908181526020018280546109409061230f565b801561098d5780601f106109625761010080835404028352916020019161098d565b820191906000526020600020905b81548152906001019060200180831161097057829003601f168201915b5050505050905090565b6109a96109a2610e59565b8383611325565b5050565b6109be6109b8610e59565b83610f1a565b6109fd576040517f08c379a00000000000000000000000000000000000000000000000000000000081526004016109f4906120ca565b60405180910390fd5b610a0984848484611492565b50505050565b6060610a1a82610ded565b610a59576040517f08c379a0000000000000000000000000000000000000000000000000000000008152600401610a509061208a565b60405180910390fd5b600660149054906101000a900460ff1615610acb576000610a786114ee565b90506000815111610a985760405180602001604052806000815250610ac3565b80610aa284611505565b604051602001610ab3929190611e57565b6040516020818303038152906040525b915050610b59565b60078054610ad89061230f565b80601f0160208091040260200160405190810160405280929190818152602001828054610b049061230f565b8015610b515780601f10610b2657610100808354040283529160200191610b51565b820191906000526020600020905b815481529060010190602001808311610b3457829003601f168201915b505050505090505b919050565b610b66610e59565b73ffffffffffffffffffffffffffffffffffffffff16610b846108db565b73ffffffffffffffffffffffffffffffffffffffff1614610bda576040517f08c379a0000000000000000000000000000000000000000000000000000000008152600401610bd19061206a565b60405180910390fd5b80600660146101000a81548160ff02191690831515021790555050565b6000600560008473ffffffffffffffffffffffffffffffffffffffff1673ffffffffffffffffffffffffffffffffffffffff16815260200190815260200160002060008373ffffffffffffffffffffffffffffffffffffffff1673ffffffffffffffffffffffffffffffffffffffff16815260200190815260200160002060009054906101000a900460ff16905092915050565b610c93610e59565b73ffffffffffffffffffffffffffffffffffffffff16610cb16108db565b73ffffffffffffffffffffffffffffffffffffffff1614610d07576040517f08c379a0000000000000000000000000000000000000000000000000000000008152600401610cfe9061206a565b60405180910390fd5b600073ffffffffffffffffffffffffffffffffffffffff168173ffffffffffffffffffffffffffffffffffffffff161415610d77576040517f08c379a0000000000000000000000000000000000000000000000000000000008152600401610d6e90611f4a565b60405180910390fd5b610d808161125f565b50565b60007f01ffc9a7000000000000000000000000000000000000000000000000000000007bffffffffffffffffffffffffffffffffffffffffffffffffffffffff1916827bffffffffffffffffffffffffffffffffffffffffffffffffffffffff1916149050919050565b60008073ffffffffffffffffffffffffffffffffffffffff166002600084815260200190815260200160002060009054906101000a900473ffffffffffffffffffffffffffffffffffffffff1673ffffffffffffffffffffffffffffffffffffffff1614159050919050565b600033905090565b816004600083815260200190815260200160002060006101000a81548173ffffffffffffffffffffffffffffffffffffffff021916908373ffffffffffffffffffffffffffffffffffffffff160217905550808273ffffffffffffffffffffffffffffffffffffffff16610ed4836106e9565b73ffffffffffffffffffffffffffffffffffffffff167f8c5be1e5ebec7d5bd14f71427d1e84f3dd0314c0f7b2291e5b200ac8c7c3b92560405160405180910390a45050565b6000610f2582610ded565b610f64576040517f08c379a0000000000000000000000000000000000000000000000000000000008152600401610f5b90611fca565b60405180910390fd5b6000610f6f836106e9565b90508073ffffffffffffffffffffffffffffffffffffffff168473ffffffffffffffffffffffffffffffffffffffff161480610fde57508373ffffffffffffffffffffffffffffffffffffffff16610fc6846104cc565b73ffffffffffffffffffffffffffffffffffffffff16145b80610fef5750610fee8185610bf7565b5b91505092915050565b8273ffffffffffffffffffffffffffffffffffffffff16611018826106e9565b73ffffffffffffffffffffffffffffffffffffffff161461106e576040517f08c379a000000000000000000000000000000000000000000000000000000000815260040161106590611f6a565b60405180910390fd5b600073ffffffffffffffffffffffffffffffffffffffff168273ffffffffffffffffffffffffffffffffffffffff1614156110de576040517f08c379a00000000000000000000000000000000000000000000000000000000081526004016110d590611f8a565b60405180910390fd5b6110e9838383611666565b6110f4600082610e61565b6001600360008573ffffffffffffffffffffffffffffffffffffffff1673ffffffffffffffffffffffffffffffffffffffff16815260200190815260200160002060008282546111449190612225565b925050819055506001600360008473ffffffffffffffffffffffffffffffffffffffff1673ffffffffffffffffffffffffffffffffffffffff168152602001908152602001600020600082825461119b919061219e565b92505081905550816002600083815260200190815260200160002060006101000a81548173ffffffffffffffffffffffffffffffffffffffff021916908373ffffffffffffffffffffffffffffffffffffffff160217905550808273ffffffffffffffffffffffffffffffffffffffff168473ffffffffffffffffffffffffffffffffffffffff167fddf252ad1be2c89b69c2b068fc378daa952ba7f163c4a11628f55a4df523b3ef60405160405180910390a461125a83838361166b565b505050565b6000600660009054906101000a900473ffffffffffffffffffffffffffffffffffffffff16905081600660006101000a81548173ffffffffffffffffffffffffffffffffffffffff021916908373ffffffffffffffffffffffffffffffffffffffff1602179055508173ffffffffffffffffffffffffffffffffffffffff168173ffffffffffffffffffffffffffffffffffffffff167f8be0079c531659141344cd1fd0a4f28419497f9722a3daafe3b4186f6b6457e060405160405180910390a35050565b8173ffffffffffffffffffffffffffffffffffffffff168373ffffffffffffffffffffffffffffffffffffffff161415611394576040517f08c379a000000000000000000000000000000000000000000000000000000000815260040161138b90611faa565b60405180910390fd5b80600560008573ffffffffffffffffffffffffffffffffffffffff1673ffffffffffffffffffffffffffffffffffffffff16815260200190815260200160002060008473ffffffffffffffffffffffffffffffffffffffff1673ffffffffffffffffffffffffffffffffffffffff16815260200190815260200160002060006101000a81548160ff0219169083151502179055508173ffffffffffffffffffffffffffffffffffffffff168373ffffffffffffffffffffffffffffffffffffffff167f17307eab39ab6107e8899845ad3d59bd9653f200f220920489ca2b5937696c31836040516114859190611eed565b60405180910390a3505050565b61149d848484610ff8565b6114a984848484611670565b6114e8576040517f08c379a00000000000000000000000000000000000000000000000000000000081526004016114df90611f2a565b60405180910390fd5b50505050565b606060405180602001604052806000815250905090565b6060600082141561154d576040518060400160405280600181526020017f30000000000000000000000000000000000000000000000000000000000000008152509050611661565b600082905060005b6000821461157f57808061156890612372565b915050600a8261157891906121f4565b9150611555565b60008167ffffffffffffffff81111561159b5761159a6124a8565b5b6040519080825280601f01601f1916602001820160405280156115cd5781602001600182028036833780820191505090505b5090505b6000851461165a576001826115e69190612225565b9150600a856115f591906123bb565b6030611601919061219e565b60f81b81838151811061161757611616612479565b5b60200101907effffffffffffffffffffffffffffffffffffffffffffffffffffffffffffff1916908160001a905350600a8561165391906121f4565b94506115d1565b8093505050505b919050565b505050565b505050565b60006116918473ffffffffffffffffffffffffffffffffffffffff16611807565b156117fa578373ffffffffffffffffffffffffffffffffffffffff1663150b7a026116ba610e59565b8786866040518563ffffffff1660e01b81526004016116dc9493929190611ea1565b602060405180830381600087803b1580156116f657600080fd5b505af192505050801561172757506040513d601f19601f820116820180604052508101906117249190611b20565b60015b6117aa573d8060008114611757576040519150601f19603f3d011682016040523d82523d6000602084013e61175c565b606091505b506000815114156117a2576040517f08c379a000000000000000000000000000000000000000000000000000000000815260040161179990611f2a565b60405180910390fd5b805181602001fd5b63150b7a0260e01b7bffffffffffffffffffffffffffffffffffffffffffffffffffffffff1916817bffffffffffffffffffffffffffffffffffffffffffffffffffffffff1916149150506117ff565b600190505b949350505050565b6000808273ffffffffffffffffffffffffffffffffffffffff163b119050919050565b600061183d6118388461212a565b612105565b905082815260208101848484011115611859576118586124dc565b5b6118648482856122cd565b509392505050565b60008135905061187b8161292b565b92915050565b60008135905061189081612942565b92915050565b6000813590506118a581612959565b92915050565b6000815190506118ba81612959565b92915050565b600082601f8301126118d5576118d46124d7565b5b81356118e584826020860161182a565b91505092915050565b6000813590506118fd81612970565b92915050565b600060208284031215611919576119186124e6565b5b60006119278482850161186c565b91505092915050565b60008060408385031215611947576119466124e6565b5b60006119558582860161186c565b92505060206119668582860161186c565b9150509250929050565b600080600060608486031215611989576119886124e6565b5b60006119978682870161186c565b93505060206119a88682870161186c565b92505060406119b9868287016118ee565b9150509250925092565b600080600080608085870312156119dd576119dc6124e6565b5b60006119eb8782880161186c565b94505060206119fc8782880161186c565b9350506040611a0d878288016118ee565b925050606085013567ffffffffffffffff811115611a2e57611a2d6124e1565b5b611a3a878288016118c0565b91505092959194509250565b60008060408385031215611a5d57611a5c6124e6565b5b6000611a6b8582860161186c565b9250506020611a7c85828601611881565b9150509250929050565b60008060408385031215611a9d57611a9c6124e6565b5b6000611aab8582860161186c565b9250506020611abc858286016118ee565b9150509250929050565b600060208284031215611adc57611adb6124e6565b5b6000611aea84828501611881565b91505092915050565b600060208284031215611b0957611b086124e6565b5b6000611b1784828501611896565b91505092915050565b600060208284031215611b3657611b356124e6565b5b6000611b44848285016118ab565b91505092915050565b600060208284031215611b6357611b626124e6565b5b6000611b71848285016118ee565b91505092915050565b611b8381612259565b82525050565b611b928161226b565b82525050565b6000611ba38261215b565b611bad8185612171565b9350611bbd8185602086016122dc565b611bc6816124eb565b840191505092915050565b6000611bdc82612166565b611be68185612182565b9350611bf68185602086016122dc565b611bff816124eb565b840191505092915050565b6000611c1582612166565b611c1f8185612193565b9350611c2f8185602086016122dc565b80840191505092915050565b6000611c48603283612182565b9150611c53826124fc565b604082019050919050565b6000611c6b602683612182565b9150611c768261254b565b604082019050919050565b6000611c8e602583612182565b9150611c998261259a565b604082019050919050565b6000611cb1602483612182565b9150611cbc826125e9565b604082019050919050565b6000611cd4601983612182565b9150611cdf82612638565b602082019050919050565b6000611cf7602c83612182565b9150611d0282612661565b604082019050919050565b6000611d1a603883612182565b9150611d25826126b0565b604082019050919050565b6000611d3d602a83612182565b9150611d48826126ff565b604082019050919050565b6000611d60602983612182565b9150611d6b8261274e565b604082019050919050565b6000611d83602c83612182565b9150611d8e8261279d565b604082019050919050565b6000611da6600583612193565b9150611db1826127ec565b600582019050919050565b6000611dc9602083612182565b9150611dd482612815565b602082019050919050565b6000611dec602f83612182565b9150611df78261283e565b604082019050919050565b6000611e0f602183612182565b9150611e1a8261288d565b604082019050919050565b6000611e32603183612182565b9150611e3d826128dc565b604082019050919050565b611e51816122c3565b82525050565b6000611e638285611c0a565b9150611e6f8284611c0a565b9150611e7a82611d99565b91508190509392505050565b6000602082019050611e9b6000830184611b7a565b92915050565b6000608082019050611eb66000830187611b7a565b611ec36020830186611b7a565b611ed06040830185611e48565b8181036060830152611ee28184611b98565b905095945050505050565b6000602082019050611f026000830184611b89565b92915050565b60006020820190508181036000830152611f228184611bd1565b905092915050565b60006020820190508181036000830152611f4381611c3b565b9050919050565b60006020820190508181036000830152611f6381611c5e565b9050919050565b60006020820190508181036000830152611f8381611c81565b9050919050565b60006020820190508181036000830152611fa381611ca4565b9050919050565b60006020820190508181036000830152611fc381611cc7565b9050919050565b60006020820190508181036000830152611fe381611cea565b9050919050565b6000602082019050818103600083015261200381611d0d565b9050919050565b6000602082019050818103600083015261202381611d30565b9050919050565b6000602082019050818103600083015261204381611d53565b9050919050565b6000602082019050818103600083015261206381611d76565b9050919050565b6000602082019050818103600083015261208381611dbc565b9050919050565b600060208201905081810360008301526120a381611ddf565b9050919050565b600060208201905081810360008301526120c381611e02565b9050919050565b600060208201905081810360008301526120e381611e25565b9050919050565b60006020820190506120ff6000830184611e48565b92915050565b600061210f612120565b905061211b8282612341565b919050565b6000604051905090565b600067ffffffffffffffff821115612145576121446124a8565b5b61214e826124eb565b9050602081019050919050565b600081519050919050565b600081519050919050565b600082825260208201905092915050565b600082825260208201905092915050565b600081905092915050565b60006121a9826122c3565b91506121b4836122c3565b9250827fffffffffffffffffffffffffffffffffffffffffffffffffffffffffffffffff038211156121e9576121e86123ec565b5b828201905092915050565b60006121ff826122c3565b915061220a836122c3565b92508261221a5761221961241b565b5b828204905092915050565b6000612230826122c3565b915061223b836122c3565b92508282101561224e5761224d6123ec565b5b828203905092915050565b6000612264826122a3565b9050919050565b60008115159050919050565b60007fffffffff0000000000000000000000000000000000000000000000000000000082169050919050565b600073ffffffffffffffffffffffffffffffffffffffff82169050919050565b6000819050919050565b82818337600083830152505050565b60005b838110156122fa5780820151818401526020810190506122df565b83811115612309576000848401525b50505050565b6000600282049050600182168061232757607f821691505b6020821081141561233b5761233a61244a565b5b50919050565b61234a826124eb565b810181811067ffffffffffffffff82111715612369576123686124a8565b5b80604052505050565b600061237d826122c3565b91507fffffffffffffffffffffffffffffffffffffffffffffffffffffffffffffffff8214156123b0576123af6123ec565b5b600182019050919050565b60006123c6826122c3565b91506123d1836122c3565b9250826123e1576123e061241b565b5b828206905092915050565b7f4e487b7100000000000000000000000000000000000000000000000000000000600052601160045260246000fd5b7f4e487b7100000000000000000000000000000000000000000000000000000000600052601260045260246000fd5b7f4e487b7100000000000000000000000000000000000000000000000000000000600052602260045260246000fd5b7f4e487b7100000000000000000000000000000000000000000000000000000000600052603260045260246000fd5b7f4e487b7100000000000000000000000000000000000000000000000000000000600052604160045260246000fd5b600080fd5b600080fd5b600080fd5b600080fd5b6000601f19601f8301169050919050565b7f4552433732313a207472616e7366657220746f206e6f6e20455243373231526560008201527f63656976657220696d706c656d656e7465720000000000000000000000000000602082015250565b7f4f776e61626c653a206e6577206f776e657220697320746865207a65726f206160008201527f6464726573730000000000000000000000000000000000000000000000000000602082015250565b7f4552433732313a207472616e736665722066726f6d20696e636f72726563742060008201527f6f776e6572000000000000000000000000000000000000000000000000000000602082015250565b7f4552433732313a207472616e7366657220746f20746865207a65726f2061646460008201527f7265737300000000000000000000000000000000000000000000000000000000602082015250565b7f4552433732313a20617070726f766520746f2063616c6c657200000000000000600082015250565b7f4552433732313a206f70657261746f7220717565727920666f72206e6f6e657860008201527f697374656e7420746f6b656e0000000000000000000000000000000000000000602082015250565b7f4552433732313a20617070726f76652063616c6c6572206973206e6f74206f7760008201527f6e6572206e6f7220617070726f76656420666f7220616c6c0000000000000000602082015250565b7f4552433732313a2062616c616e636520717565727920666f7220746865207a6560008201527f726f206164647265737300000000000000000000000000000000000000000000602082015250565b7f4552433732313a206f776e657220717565727920666f72206e6f6e657869737460008201527f656e7420746f6b656e0000000000000000000000000000000000000000000000602082015250565b7f4552433732313a20617070726f76656420717565727920666f72206e6f6e657860008201527f697374656e7420746f6b656e0000000000000000000000000000000000000000602082015250565b7f2e6a736f6e000000000000000000000000000000000000000000000000000000600082015250565b7f4f776e61626c653a2063616c6c6572206973206e6f7420746865206f776e6572600082015250565b7f4552433732314d657461646174613a2055524920717565727920666f72206e6f60008201527f6e6578697374656e7420746f6b656e0000000000000000000000000000000000602082015250565b7f4552433732313a20617070726f76616c20746f2063757272656e74206f776e6560008201527f7200000000000000000000000000000000000000000000000000000000000000602082015250565b7f4552433732313a207472616e736665722063616c6c6572206973206e6f74206f60008201527f776e6572206e6f7220617070726f766564000000000000000000000000000000602082015250565b61293481612259565b811461293f57600080fd5b50565b61294b8161226b565b811461295657600080fd5b50565b61296281612277565b811461296d57600080fd5b50565b612979816122c3565b811461298457600080fd5b5056fea2646970667358221220354e9a399e668c478c1f767b0be308269e4e5bc1eff2b1a577af41812e3a831764736f6c63430008070033697066733a2f2f516d657871634c44766f5036484354745347756d4733797a685a64483867757656337a336b526543766632514b6e",
  "immutableReferences": {},
  "source": "// SPDX-License-Identifier: MIT\npragma solidity >=0.4.22 <0.9.0;\nimport \"@openzeppelin/contracts/token/ERC721/IERC721.sol\";\nimport \"@openzeppelin/contracts/token/ERC721/ERC721.sol\";\nimport \"@openzeppelin/contracts/access/Ownable.sol\";\n\ncontract BaseERC721BlindBox is IERC721, ERC721, Ownable {\n    using Strings for uint256;\n    bool private _blindBoxOpened = false;\n    string private _blindTokenURI =\n        \"ipfs://QmexqcLDvoP6HCTtSGumG3yzhZdH8guvV3z3kReCvf2QKn\"; // when the box hasn't open, it shows this metadata(tokenURI)\n\n    constructor() public ERC721(\"GameItem\", \"ITM\") {}\n\n    function _isBlindBoxOpened() internal view returns (bool) {\n        return _blindBoxOpened;\n    }\n\n    function setBlindBoxOpened(bool _status) public onlyOwner {\n        _blindBoxOpened = _status;\n    }\n\n    // this function controls how the token URI is constructed\n    function tokenURI(uint256 tokenId)\n        public\n        view\n        virtual\n        override\n        returns (string memory)\n    {\n        require(\n            _exists(tokenId),\n            \"ERC721Metadata: URI query for nonexistent token\"\n        );\n        if (_blindBoxOpened) {\n            string memory baseURI = _baseURI();\n            return\n                bytes(baseURI).length > 0\n                    ? string(\n                        abi.encodePacked(baseURI, tokenId.toString(), \".json\")\n                    )\n                    : \"\";\n        } else {\n            return _blindTokenURI;\n        }\n    }\n}\n",
  "sourcePath": "/Users/leo/Desktop/NFT-blind-box/contracts/Blind_box.sol",
  "compiler": {
    "name": "solc",
    "version": "0.8.7+commit.e28d00a7.Emscripten.clang"
  },
  "schemaVersion": "3.4.5",
  "updatedAt": "2022-03-14T07:48:08.025Z",
  "devdoc": {
    "kind": "dev",
    "methods": {
      "approve(address,uint256)": {
        "details": "See {IERC721-approve}."
      },
      "balanceOf(address)": {
        "details": "See {IERC721-balanceOf}."
      },
      "getApproved(uint256)": {
        "details": "See {IERC721-getApproved}."
      },
      "isApprovedForAll(address,address)": {
        "details": "See {IERC721-isApprovedForAll}."
      },
      "name()": {
        "details": "See {IERC721Metadata-name}."
      },
      "owner()": {
        "details": "Returns the address of the current owner."
      },
      "ownerOf(uint256)": {
        "details": "See {IERC721-ownerOf}."
      },
      "renounceOwnership()": {
        "details": "Leaves the contract without owner. It will not be possible to call `onlyOwner` functions anymore. Can only be called by the current owner. NOTE: Renouncing ownership will leave the contract without an owner, thereby removing any functionality that is only available to the owner."
      },
      "safeTransferFrom(address,address,uint256)": {
        "details": "See {IERC721-safeTransferFrom}."
      },
      "safeTransferFrom(address,address,uint256,bytes)": {
        "details": "See {IERC721-safeTransferFrom}."
      },
      "setApprovalForAll(address,bool)": {
        "details": "See {IERC721-setApprovalForAll}."
      },
      "supportsInterface(bytes4)": {
        "details": "See {IERC165-supportsInterface}."
      },
      "symbol()": {
        "details": "See {IERC721Metadata-symbol}."
      },
      "tokenURI(uint256)": {
        "details": "See {IERC721Metadata-tokenURI}."
      },
      "transferFrom(address,address,uint256)": {
        "details": "See {IERC721-transferFrom}."
      },
      "transferOwnership(address)": {
        "details": "Transfers ownership of the contract to a new account (`newOwner`). Can only be called by the current owner."
      }
    },
    "version": 1
  },
  "userdoc": {
    "kind": "user",
    "methods": {},
    "version": 1
  }
}