{
  "contractName": "MyNFT",
  "abi": [
    {
      "inputs": [],
      "stateMutability": "nonpayable",
      "type": "constructor"
    },
    {
      "anonymous": false,
      "inputs": [
        {
          "indexed": true,
          "internalType": "address",
          "name": "owner",
          "type": "address"
        },
        {
          "indexed": true,
          "internalType": "address",
          "name": "approved",
          "type": "address"
        },
        {
          "indexed": true,
          "internalType": "uint256",
          "name": "tokenId",
          "type": "uint256"
        }
      ],
      "name": "Approval",
      "type": "event"
    },
    {
      "anonymous": false,
      "inputs": [
        {
          "indexed": true,
          "internalType": "address",
          "name": "owner",
          "type": "address"
        },
        {
          "indexed": true,
          "internalType": "address",
          "name": "operator",
          "type": "address"
        },
        {
          "indexed": false,
          "internalType": "bool",
          "name": "approved",
          "type": "bool"
        }
      ],
      "name": "ApprovalForAll",
      "type": "event"
    },
    {
      "anonymous": false,
      "inputs": [
        {
          "indexed": true,
          "internalType": "address",
          "name": "previousOwner",
          "type": "address"
        },
        {
          "indexed": true,
          "internalType": "address",
          "name": "newOwner",
          "type": "address"
        }
      ],
      "name": "OwnershipTransferred",
      "type": "event"
    },
    {
      "anonymous": false,
      "inputs": [
        {
          "indexed": true,
          "internalType": "address",
          "name": "from",
          "type": "address"
        },
        {
          "indexed": true,
          "internalType": "address",
          "name": "to",
          "type": "address"
        },
        {
          "indexed": true,
          "internalType": "uint256",
          "name": "tokenId",
          "type": "uint256"
        }
      ],
      "name": "Transfer",
      "type": "event"
    },
    {
      "inputs": [
        {
          "internalType": "address",
          "name": "to",
          "type": "address"
        },
        {
          "internalType": "uint256",
          "name": "tokenId",
          "type": "uint256"
        }
      ],
      "name": "approve",
      "outputs": [],
      "stateMutability": "nonpayable",
      "type": "function"
    },
    {
      "inputs": [
        {
          "internalType": "address",
          "name": "owner",
          "type": "address"
        }
      ],
      "name": "balanceOf",
      "outputs": [
        {
          "internalType": "uint256",
          "name": "",
          "type": "uint256"
        }
      ],
      "stateMutability": "view",
      "type": "function",
      "constant": true
    },
    {
      "inputs": [
        {
          "internalType": "uint256",
          "name": "tokenId",
          "type": "uint256"
        }
      ],
      "name": "getApproved",
      "outputs": [
        {
          "internalType": "address",
          "name": "",
          "type": "address"
        }
      ],
      "stateMutability": "view",
      "type": "function",
      "constant": true
    },
    {
      "inputs": [
        {
          "internalType": "address",
          "name": "owner",
          "type": "address"
        },
        {
          "internalType": "address",
          "name": "operator",
          "type": "address"
        }
      ],
      "name": "isApprovedForAll",
      "outputs": [
        {
          "internalType": "bool",
          "name": "",
          "type": "bool"
        }
      ],
      "stateMutability": "view",
      "type": "function",
      "constant": true
    },
    {
      "inputs": [],
      "name": "name",
      "outputs": [
        {
          "internalType": "string",
          "name": "",
          "type": "string"
        }
      ],
      "stateMutability": "view",
      "type": "function",
      "constant": true
    },
    {
      "inputs": [],
      "name": "owner",
      "outputs": [
        {
          "internalType": "address",
          "name": "",
          "type": "address"
        }
      ],
      "stateMutability": "view",
      "type": "function",
      "constant": true
    },
    {
      "inputs": [
        {
          "internalType": "uint256",
          "name": "tokenId",
          "type": "uint256"
        }
      ],
      "name": "ownerOf",
      "outputs": [
        {
          "internalType": "address",
          "name": "",
          "type": "address"
        }
      ],
      "stateMutability": "view",
      "type": "function",
      "constant": true
    },
    {
      "inputs": [],
      "name": "renounceOwnership",
      "outputs": [],
      "stateMutability": "nonpayable",
      "type": "function"
    },
    {
      "inputs": [
        {
          "internalType": "address",
          "name": "from",
          "type": "address"
        },
        {
          "internalType": "address",
          "name": "to",
          "type": "address"
        },
        {
          "internalType": "uint256",
          "name": "tokenId",
          "type": "uint256"
        }
      ],
      "name": "safeTransferFrom",
      "outputs": [],
      "stateMutability": "nonpayable",
      "type": "function"
    },
    {
      "inputs": [
        {
          "internalType": "address",
          "name": "from",
          "type": "address"
        },
        {
          "internalType": "address",
          "name": "to",
          "type": "address"
        },
        {
          "internalType": "uint256",
          "name": "tokenId",
          "type": "uint256"
        },
        {
          "internalType": "bytes",
          "name": "_data",
          "type": "bytes"
        }
      ],
      "name": "safeTransferFrom",
      "outputs": [],
      "stateMutability": "nonpayable",
      "type": "function"
    },
    {
      "inputs": [
        {
          "internalType": "address",
          "name": "operator",
          "type": "address"
        },
        {
          "internalType": "bool",
          "name": "approved",
          "type": "bool"
        }
      ],
      "name": "setApprovalForAll",
      "outputs": [],
      "stateMutability": "nonpayable",
      "type": "function"
    },
    {
      "inputs": [
        {
          "internalType": "bytes4",
          "name": "interfaceId",
          "type": "bytes4"
        }
      ],
      "name": "supportsInterface",
      "outputs": [
        {
          "internalType": "bool",
          "name": "",
          "type": "bool"
        }
      ],
      "stateMutability": "view",
      "type": "function",
      "constant": true
    },
    {
      "inputs": [],
      "name": "symbol",
      "outputs": [
        {
          "internalType": "string",
          "name": "",
          "type": "string"
        }
      ],
      "stateMutability": "view",
      "type": "function",
      "constant": true
    },
    {
      "inputs": [
        {
          "internalType": "address",
          "name": "from",
          "type": "address"
        },
        {
          "internalType": "address",
          "name": "to",
          "type": "address"
        },
        {
          "internalType": "uint256",
          "name": "tokenId",
          "type": "uint256"
        }
      ],
      "name": "transferFrom",
      "outputs": [],
      "stateMutability": "nonpayable",
      "type": "function"
    },
    {
      "inputs": [
        {
          "internalType": "address",
          "name": "newOwner",
          "type": "address"
        }
      ],
      "name": "transferOwnership",
      "outputs": [],
      "stateMutability": "nonpayable",
      "type": "function"
    },
    {
      "inputs": [
        {
          "internalType": "bool",
          "name": "_status",
          "type": "bool"
        }
      ],
      "name": "setBlindBoxOpened",
      "outputs": [],
      "stateMutability": "nonpayable",
      "type": "function"
    },
    {
      "inputs": [
        {
          "internalType": "address",
          "name": "recipient",
          "type": "address"
        },
        {
          "internalType": "string",
          "name": "URIstring",
          "type": "string"
        }
      ],
      "name": "mintNFT",
      "outputs": [],
      "stateMutability": "nonpayable",
      "type": "function"
    },
    {
      "inputs": [
        {
          "internalType": "address",
          "name": "recipient",
          "type": "address"
        }
      ],
      "name": "mintBlindBoxNFT",
      "outputs": [],
      "stateMutability": "nonpayable",
      "type": "function"
    },
    {
      "inputs": [
        {
          "internalType": "uint256",
          "name": "tokenId",
          "type": "uint256"
        }
      ],
      "name": "tokenURI",
      "outputs": [
        {
          "internalType": "string",
          "name": "",
          "type": "string"
        }
      ],
      "stateMutability": "view",
      "type": "function",
      "constant": true
    }
  ],
  "bytecode": "0x60806040526000600960006101000a81548160ff0219169083151502179055506040518060600160405280603581526020016200340660359139600a908051906020019062000050929190620001f3565b503480156200005e57600080fd5b506040518060400160405280600581526020017f4d794e46540000000000000000000000000000000000000000000000000000008152506040518060400160405280600381526020017f4e465400000000000000000000000000000000000000000000000000000000008152508160009080519060200190620000e3929190620001f3565b508060019080519060200190620000fc929190620001f3565b5050506200011f620001136200012560201b60201c565b6200012d60201b60201c565b62000308565b600033905090565b6000600760009054906101000a900473ffffffffffffffffffffffffffffffffffffffff16905081600760006101000a81548173ffffffffffffffffffffffffffffffffffffffff021916908373ffffffffffffffffffffffffffffffffffffffff1602179055508173ffffffffffffffffffffffffffffffffffffffff168173ffffffffffffffffffffffffffffffffffffffff167f8be0079c531659141344cd1fd0a4f28419497f9722a3daafe3b4186f6b6457e060405160405180910390a35050565b8280546200020190620002a3565b90600052602060002090601f01602090048101928262000225576000855562000271565b82601f106200024057805160ff191683800117855562000271565b8280016001018555821562000271579182015b828111156200027057825182559160200191906001019062000253565b5b50905062000280919062000284565b5090565b5b808211156200029f57600081600090555060010162000285565b5090565b60006002820490506001821680620002bc57607f821691505b60208210811415620002d357620002d2620002d9565b5b50919050565b7f4e487b7100000000000000000000000000000000000000000000000000000000600052602260045260246000fd5b6130ee80620003186000396000f3fe608060405234801561001057600080fd5b50600436106101215760003560e01c806383699e57116100ad578063c87b56dd11610071578063c87b56dd146102f2578063e6a9e57714610322578063e985e9c51461033e578063eacabe141461036e578063f2fde38b1461038a57610121565b806383699e57146102625780638da5cb5b1461027e57806395d89b411461029c578063a22cb465146102ba578063b88d4fde146102d657610121565b806323b872dd116100f457806323b872dd146101c057806342842e0e146101dc5780636352211e146101f857806370a0823114610228578063715018a61461025857610121565b806301ffc9a71461012657806306fdde0314610156578063081812fc14610174578063095ea7b3146101a4575b600080fd5b610140600480360381019061013b9190612089565b6103a6565b60405161014d91906124ec565b60405180910390f35b61015e610488565b60405161016b9190612507565b60405180910390f35b61018e600480360381019061018991906120e3565b61051a565b60405161019b9190612485565b60405180910390f35b6101be60048036038101906101b9919061201c565b61059f565b005b6101da60048036038101906101d59190611eaa565b6106b7565b005b6101f660048036038101906101f19190611eaa565b610717565b005b610212600480360381019061020d91906120e3565b610737565b60405161021f9190612485565b60405180910390f35b610242600480360381019061023d9190611e3d565b6107e9565b60405161024f9190612749565b60405180910390f35b6102606108a1565b005b61027c60048036038101906102779190611e3d565b610929565b005b6102866109e3565b6040516102939190612485565b60405180910390f35b6102a4610a0d565b6040516102b19190612507565b60405180910390f35b6102d460048036038101906102cf9190611f80565b610a9f565b005b6102f060048036038101906102eb9190611efd565b610ab5565b005b61030c600480360381019061030791906120e3565b610b17565b6040516103199190612507565b60405180910390f35b61033c6004803603810190610337919061205c565b610c66565b005b61035860048036038101906103539190611e6a565b610cff565b60405161036591906124ec565b60405180910390f35b61038860048036038101906103839190611fc0565b610d93565b005b6103a4600480360381019061039f9190611e3d565b610e40565b005b60007f80ac58cd000000000000000000000000000000000000000000000000000000007bffffffffffffffffffffffffffffffffffffffffffffffffffffffff1916827bffffffffffffffffffffffffffffffffffffffffffffffffffffffff1916148061047157507f5b5e139f000000000000000000000000000000000000000000000000000000007bffffffffffffffffffffffffffffffffffffffffffffffffffffffff1916827bffffffffffffffffffffffffffffffffffffffffffffffffffffffff1916145b80610481575061048082610f38565b5b9050919050565b6060600080546104979061299f565b80601f01602080910402602001604051908101604052809291908181526020018280546104c39061299f565b80156105105780601f106104e557610100808354040283529160200191610510565b820191906000526020600020905b8154815290600101906020018083116104f357829003601f168201915b5050505050905090565b600061052582610fa2565b610564576040517f08c379a000000000000000000000000000000000000000000000000000000000815260040161055b906126a9565b60405180910390fd5b6004600083815260200190815260200160002060009054906101000a900473ffffffffffffffffffffffffffffffffffffffff169050919050565b60006105aa82610737565b90508073ffffffffffffffffffffffffffffffffffffffff168373ffffffffffffffffffffffffffffffffffffffff16141561061b576040517f08c379a000000000000000000000000000000000000000000000000000000000815260040161061290612709565b60405180910390fd5b8073ffffffffffffffffffffffffffffffffffffffff1661063a61100e565b73ffffffffffffffffffffffffffffffffffffffff16148061066957506106688161066361100e565b610cff565b5b6106a8576040517f08c379a000000000000000000000000000000000000000000000000000000000815260040161069f90612609565b60405180910390fd5b6106b28383611016565b505050565b6106c86106c261100e565b826110cf565b610707576040517f08c379a00000000000000000000000000000000000000000000000000000000081526004016106fe90612729565b60405180910390fd5b6107128383836111ad565b505050565b61073283838360405180602001604052806000815250610ab5565b505050565b6000806002600084815260200190815260200160002060009054906101000a900473ffffffffffffffffffffffffffffffffffffffff169050600073ffffffffffffffffffffffffffffffffffffffff168173ffffffffffffffffffffffffffffffffffffffff1614156107e0576040517f08c379a00000000000000000000000000000000000000000000000000000000081526004016107d790612649565b60405180910390fd5b80915050919050565b60008073ffffffffffffffffffffffffffffffffffffffff168273ffffffffffffffffffffffffffffffffffffffff16141561085a576040517f08c379a000000000000000000000000000000000000000000000000000000000815260040161085190612629565b60405180910390fd5b600360008373ffffffffffffffffffffffffffffffffffffffff1673ffffffffffffffffffffffffffffffffffffffff168152602001908152602001600020549050919050565b6108a961100e565b73ffffffffffffffffffffffffffffffffffffffff166108c76109e3565b73ffffffffffffffffffffffffffffffffffffffff161461091d576040517f08c379a0000000000000000000000000000000000000000000000000000000008152600401610914906126c9565b60405180910390fd5b6109276000611414565b565b600061093560086114da565b905061094182826114e8565b6109d581600a80546109529061299f565b80601f016020809104026020016040519081016040528092919081815260200182805461097e9061299f565b80156109cb5780601f106109a0576101008083540402835291602001916109cb565b820191906000526020600020905b8154815290600101906020018083116109ae57829003601f168201915b50505050506116c2565b6109df6008611736565b5050565b6000600760009054906101000a900473ffffffffffffffffffffffffffffffffffffffff16905090565b606060018054610a1c9061299f565b80601f0160208091040260200160405190810160405280929190818152602001828054610a489061299f565b8015610a955780601f10610a6a57610100808354040283529160200191610a95565b820191906000526020600020905b815481529060010190602001808311610a7857829003601f168201915b5050505050905090565b610ab1610aaa61100e565b838361174c565b5050565b610ac6610ac061100e565b836110cf565b610b05576040517f08c379a0000000000000000000000000000000000000000000000000000000008152600401610afc90612729565b60405180910390fd5b610b11848484846118b9565b50505050565b6060610b2282610fa2565b610b61576040517f08c379a0000000000000000000000000000000000000000000000000000000008152600401610b58906126e9565b60405180910390fd5b600960009054906101000a900460ff1615610bd3576000610b80611915565b90506000815111610ba05760405180602001604052806000815250610bcb565b80610baa8461192c565b604051602001610bbb929190612456565b6040516020818303038152906040525b915050610c61565b600a8054610be09061299f565b80601f0160208091040260200160405190810160405280929190818152602001828054610c0c9061299f565b8015610c595780601f10610c2e57610100808354040283529160200191610c59565b820191906000526020600020905b815481529060010190602001808311610c3c57829003601f168201915b505050505090505b919050565b610c6e61100e565b73ffffffffffffffffffffffffffffffffffffffff16610c8c6109e3565b73ffffffffffffffffffffffffffffffffffffffff1614610ce2576040517f08c379a0000000000000000000000000000000000000000000000000000000008152600401610cd9906126c9565b60405180910390fd5b80600960006101000a81548160ff02191690831515021790555050565b6000600560008473ffffffffffffffffffffffffffffffffffffffff1673ffffffffffffffffffffffffffffffffffffffff16815260200190815260200160002060008373ffffffffffffffffffffffffffffffffffffffff1673ffffffffffffffffffffffffffffffffffffffff16815260200190815260200160002060009054906101000a900460ff16905092915050565b610d9b61100e565b73ffffffffffffffffffffffffffffffffffffffff16610db96109e3565b73ffffffffffffffffffffffffffffffffffffffff1614610e0f576040517f08c379a0000000000000000000000000000000000000000000000000000000008152600401610e06906126c9565b60405180910390fd5b6000610e1b60086114da565b9050610e2783826114e8565b610e3181836116c2565b610e3b6008611736565b505050565b610e4861100e565b73ffffffffffffffffffffffffffffffffffffffff16610e666109e3565b73ffffffffffffffffffffffffffffffffffffffff1614610ebc576040517f08c379a0000000000000000000000000000000000000000000000000000000008152600401610eb3906126c9565b60405180910390fd5b600073ffffffffffffffffffffffffffffffffffffffff168173ffffffffffffffffffffffffffffffffffffffff161415610f2c576040517f08c379a0000000000000000000000000000000000000000000000000000000008152600401610f2390612549565b60405180910390fd5b610f3581611414565b50565b60007f01ffc9a7000000000000000000000000000000000000000000000000000000007bffffffffffffffffffffffffffffffffffffffffffffffffffffffff1916827bffffffffffffffffffffffffffffffffffffffffffffffffffffffff1916149050919050565b60008073ffffffffffffffffffffffffffffffffffffffff166002600084815260200190815260200160002060009054906101000a900473ffffffffffffffffffffffffffffffffffffffff1673ffffffffffffffffffffffffffffffffffffffff1614159050919050565b600033905090565b816004600083815260200190815260200160002060006101000a81548173ffffffffffffffffffffffffffffffffffffffff021916908373ffffffffffffffffffffffffffffffffffffffff160217905550808273ffffffffffffffffffffffffffffffffffffffff1661108983610737565b73ffffffffffffffffffffffffffffffffffffffff167f8c5be1e5ebec7d5bd14f71427d1e84f3dd0314c0f7b2291e5b200ac8c7c3b92560405160405180910390a45050565b60006110da82610fa2565b611119576040517f08c379a0000000000000000000000000000000000000000000000000000000008152600401611110906125e9565b60405180910390fd5b600061112483610737565b90508073ffffffffffffffffffffffffffffffffffffffff168473ffffffffffffffffffffffffffffffffffffffff16148061119357508373ffffffffffffffffffffffffffffffffffffffff1661117b8461051a565b73ffffffffffffffffffffffffffffffffffffffff16145b806111a457506111a38185610cff565b5b91505092915050565b8273ffffffffffffffffffffffffffffffffffffffff166111cd82610737565b73ffffffffffffffffffffffffffffffffffffffff1614611223576040517f08c379a000000000000000000000000000000000000000000000000000000000815260040161121a90612569565b60405180910390fd5b600073ffffffffffffffffffffffffffffffffffffffff168273ffffffffffffffffffffffffffffffffffffffff161415611293576040517f08c379a000000000000000000000000000000000000000000000000000000000815260040161128a906125a9565b60405180910390fd5b61129e838383611a8d565b6112a9600082611016565b6001600360008573ffffffffffffffffffffffffffffffffffffffff1673ffffffffffffffffffffffffffffffffffffffff16815260200190815260200160002060008282546112f991906128b5565b925050819055506001600360008473ffffffffffffffffffffffffffffffffffffffff1673ffffffffffffffffffffffffffffffffffffffff1681526020019081526020016000206000828254611350919061282e565b92505081905550816002600083815260200190815260200160002060006101000a81548173ffffffffffffffffffffffffffffffffffffffff021916908373ffffffffffffffffffffffffffffffffffffffff160217905550808273ffffffffffffffffffffffffffffffffffffffff168473ffffffffffffffffffffffffffffffffffffffff167fddf252ad1be2c89b69c2b068fc378daa952ba7f163c4a11628f55a4df523b3ef60405160405180910390a461140f838383611a92565b505050565b6000600760009054906101000a900473ffffffffffffffffffffffffffffffffffffffff16905081600760006101000a81548173ffffffffffffffffffffffffffffffffffffffff021916908373ffffffffffffffffffffffffffffffffffffffff1602179055508173ffffffffffffffffffffffffffffffffffffffff168173ffffffffffffffffffffffffffffffffffffffff167f8be0079c531659141344cd1fd0a4f28419497f9722a3daafe3b4186f6b6457e060405160405180910390a35050565b600081600001549050919050565b600073ffffffffffffffffffffffffffffffffffffffff168273ffffffffffffffffffffffffffffffffffffffff161415611558576040517f08c379a000000000000000000000000000000000000000000000000000000000815260040161154f90612689565b60405180910390fd5b61156181610fa2565b156115a1576040517f08c379a000000000000000000000000000000000000000000000000000000000815260040161159890612589565b60405180910390fd5b6115ad60008383611a8d565b6001600360008473ffffffffffffffffffffffffffffffffffffffff1673ffffffffffffffffffffffffffffffffffffffff16815260200190815260200160002060008282546115fd919061282e565b92505081905550816002600083815260200190815260200160002060006101000a81548173ffffffffffffffffffffffffffffffffffffffff021916908373ffffffffffffffffffffffffffffffffffffffff160217905550808273ffffffffffffffffffffffffffffffffffffffff16600073ffffffffffffffffffffffffffffffffffffffff167fddf252ad1be2c89b69c2b068fc378daa952ba7f163c4a11628f55a4df523b3ef60405160405180910390a46116be60008383611a92565b5050565b6116cb82610fa2565b61170a576040517f08c379a000000000000000000000000000000000000000000000000000000000815260040161170190612669565b60405180910390fd5b80600660008481526020019081526020016000209080519060200190611731929190611c51565b505050565b6001816000016000828254019250508190555050565b8173ffffffffffffffffffffffffffffffffffffffff168373ffffffffffffffffffffffffffffffffffffffff1614156117bb576040517f08c379a00000000000000000000000000000000000000000000000000000000081526004016117b2906125c9565b60405180910390fd5b80600560008573ffffffffffffffffffffffffffffffffffffffff1673ffffffffffffffffffffffffffffffffffffffff16815260200190815260200160002060008473ffffffffffffffffffffffffffffffffffffffff1673ffffffffffffffffffffffffffffffffffffffff16815260200190815260200160002060006101000a81548160ff0219169083151502179055508173ffffffffffffffffffffffffffffffffffffffff168373ffffffffffffffffffffffffffffffffffffffff167f17307eab39ab6107e8899845ad3d59bd9653f200f220920489ca2b5937696c31836040516118ac91906124ec565b60405180910390a3505050565b6118c48484846111ad565b6118d084848484611a97565b61190f576040517f08c379a000000000000000000000000000000000000000000000000000000000815260040161190690612529565b60405180910390fd5b50505050565b606060405180602001604052806000815250905090565b60606000821415611974576040518060400160405280600181526020017f30000000000000000000000000000000000000000000000000000000000000008152509050611a88565b600082905060005b600082146119a657808061198f90612a02565b915050600a8261199f9190612884565b915061197c565b60008167ffffffffffffffff8111156119c2576119c1612b38565b5b6040519080825280601f01601f1916602001820160405280156119f45781602001600182028036833780820191505090505b5090505b60008514611a8157600182611a0d91906128b5565b9150600a85611a1c9190612a4b565b6030611a28919061282e565b60f81b818381518110611a3e57611a3d612b09565b5b60200101907effffffffffffffffffffffffffffffffffffffffffffffffffffffffffffff1916908160001a905350600a85611a7a9190612884565b94506119f8565b8093505050505b919050565b505050565b505050565b6000611ab88473ffffffffffffffffffffffffffffffffffffffff16611c2e565b15611c21578373ffffffffffffffffffffffffffffffffffffffff1663150b7a02611ae161100e565b8786866040518563ffffffff1660e01b8152600401611b0394939291906124a0565b602060405180830381600087803b158015611b1d57600080fd5b505af1925050508015611b4e57506040513d601f19601f82011682018060405250810190611b4b91906120b6565b60015b611bd1573d8060008114611b7e576040519150601f19603f3d011682016040523d82523d6000602084013e611b83565b606091505b50600081511415611bc9576040517f08c379a0000000000000000000000000000000000000000000000000000000008152600401611bc090612529565b60405180910390fd5b805181602001fd5b63150b7a0260e01b7bffffffffffffffffffffffffffffffffffffffffffffffffffffffff1916817bffffffffffffffffffffffffffffffffffffffffffffffffffffffff191614915050611c26565b600190505b949350505050565b6000808273ffffffffffffffffffffffffffffffffffffffff163b119050919050565b828054611c5d9061299f565b90600052602060002090601f016020900481019282611c7f5760008555611cc6565b82601f10611c9857805160ff1916838001178555611cc6565b82800160010185558215611cc6579182015b82811115611cc5578251825591602001919060010190611caa565b5b509050611cd39190611cd7565b5090565b5b80821115611cf0576000816000905550600101611cd8565b5090565b6000611d07611d0284612789565b612764565b905082815260208101848484011115611d2357611d22612b6c565b5b611d2e84828561295d565b509392505050565b6000611d49611d44846127ba565b612764565b905082815260208101848484011115611d6557611d64612b6c565b5b611d7084828561295d565b509392505050565b600081359050611d878161305c565b92915050565b600081359050611d9c81613073565b92915050565b600081359050611db18161308a565b92915050565b600081519050611dc68161308a565b92915050565b600082601f830112611de157611de0612b67565b5b8135611df1848260208601611cf4565b91505092915050565b600082601f830112611e0f57611e0e612b67565b5b8135611e1f848260208601611d36565b91505092915050565b600081359050611e37816130a1565b92915050565b600060208284031215611e5357611e52612b76565b5b6000611e6184828501611d78565b91505092915050565b60008060408385031215611e8157611e80612b76565b5b6000611e8f85828601611d78565b9250506020611ea085828601611d78565b9150509250929050565b600080600060608486031215611ec357611ec2612b76565b5b6000611ed186828701611d78565b9350506020611ee286828701611d78565b9250506040611ef386828701611e28565b9150509250925092565b60008060008060808587031215611f1757611f16612b76565b5b6000611f2587828801611d78565b9450506020611f3687828801611d78565b9350506040611f4787828801611e28565b925050606085013567ffffffffffffffff811115611f6857611f67612b71565b5b611f7487828801611dcc565b91505092959194509250565b60008060408385031215611f9757611f96612b76565b5b6000611fa585828601611d78565b9250506020611fb685828601611d8d565b9150509250929050565b60008060408385031215611fd757611fd6612b76565b5b6000611fe585828601611d78565b925050602083013567ffffffffffffffff81111561200657612005612b71565b5b61201285828601611dfa565b9150509250929050565b6000806040838503121561203357612032612b76565b5b600061204185828601611d78565b925050602061205285828601611e28565b9150509250929050565b60006020828403121561207257612071612b76565b5b600061208084828501611d8d565b91505092915050565b60006020828403121561209f5761209e612b76565b5b60006120ad84828501611da2565b91505092915050565b6000602082840312156120cc576120cb612b76565b5b60006120da84828501611db7565b91505092915050565b6000602082840312156120f9576120f8612b76565b5b600061210784828501611e28565b91505092915050565b612119816128e9565b82525050565b612128816128fb565b82525050565b6000612139826127eb565b6121438185612801565b935061215381856020860161296c565b61215c81612b7b565b840191505092915050565b6000612172826127f6565b61217c8185612812565b935061218c81856020860161296c565b61219581612b7b565b840191505092915050565b60006121ab826127f6565b6121b58185612823565b93506121c581856020860161296c565b80840191505092915050565b60006121de603283612812565b91506121e982612b8c565b604082019050919050565b6000612201602683612812565b915061220c82612bdb565b604082019050919050565b6000612224602583612812565b915061222f82612c2a565b604082019050919050565b6000612247601c83612812565b915061225282612c79565b602082019050919050565b600061226a602483612812565b915061227582612ca2565b604082019050919050565b600061228d601983612812565b915061229882612cf1565b602082019050919050565b60006122b0602c83612812565b91506122bb82612d1a565b604082019050919050565b60006122d3603883612812565b91506122de82612d69565b604082019050919050565b60006122f6602a83612812565b915061230182612db8565b604082019050919050565b6000612319602983612812565b915061232482612e07565b604082019050919050565b600061233c602e83612812565b915061234782612e56565b604082019050919050565b600061235f602083612812565b915061236a82612ea5565b602082019050919050565b6000612382602c83612812565b915061238d82612ece565b604082019050919050565b60006123a5600583612823565b91506123b082612f1d565b600582019050919050565b60006123c8602083612812565b91506123d382612f46565b602082019050919050565b60006123eb602f83612812565b91506123f682612f6f565b604082019050919050565b600061240e602183612812565b915061241982612fbe565b604082019050919050565b6000612431603183612812565b915061243c8261300d565b604082019050919050565b61245081612953565b82525050565b600061246282856121a0565b915061246e82846121a0565b915061247982612398565b91508190509392505050565b600060208201905061249a6000830184612110565b92915050565b60006080820190506124b56000830187612110565b6124c26020830186612110565b6124cf6040830185612447565b81810360608301526124e1818461212e565b905095945050505050565b6000602082019050612501600083018461211f565b92915050565b600060208201905081810360008301526125218184612167565b905092915050565b60006020820190508181036000830152612542816121d1565b9050919050565b60006020820190508181036000830152612562816121f4565b9050919050565b6000602082019050818103600083015261258281612217565b9050919050565b600060208201905081810360008301526125a28161223a565b9050919050565b600060208201905081810360008301526125c28161225d565b9050919050565b600060208201905081810360008301526125e281612280565b9050919050565b60006020820190508181036000830152612602816122a3565b9050919050565b60006020820190508181036000830152612622816122c6565b9050919050565b60006020820190508181036000830152612642816122e9565b9050919050565b600060208201905081810360008301526126628161230c565b9050919050565b600060208201905081810360008301526126828161232f565b9050919050565b600060208201905081810360008301526126a281612352565b9050919050565b600060208201905081810360008301526126c281612375565b9050919050565b600060208201905081810360008301526126e2816123bb565b9050919050565b60006020820190508181036000830152612702816123de565b9050919050565b6000602082019050818103600083015261272281612401565b9050919050565b6000602082019050818103600083015261274281612424565b9050919050565b600060208201905061275e6000830184612447565b92915050565b600061276e61277f565b905061277a82826129d1565b919050565b6000604051905090565b600067ffffffffffffffff8211156127a4576127a3612b38565b5b6127ad82612b7b565b9050602081019050919050565b600067ffffffffffffffff8211156127d5576127d4612b38565b5b6127de82612b7b565b9050602081019050919050565b600081519050919050565b600081519050919050565b600082825260208201905092915050565b600082825260208201905092915050565b600081905092915050565b600061283982612953565b915061284483612953565b9250827fffffffffffffffffffffffffffffffffffffffffffffffffffffffffffffffff0382111561287957612878612a7c565b5b828201905092915050565b600061288f82612953565b915061289a83612953565b9250826128aa576128a9612aab565b5b828204905092915050565b60006128c082612953565b91506128cb83612953565b9250828210156128de576128dd612a7c565b5b828203905092915050565b60006128f482612933565b9050919050565b60008115159050919050565b60007fffffffff0000000000000000000000000000000000000000000000000000000082169050919050565b600073ffffffffffffffffffffffffffffffffffffffff82169050919050565b6000819050919050565b82818337600083830152505050565b60005b8381101561298a57808201518184015260208101905061296f565b83811115612999576000848401525b50505050565b600060028204905060018216806129b757607f821691505b602082108114156129cb576129ca612ada565b5b50919050565b6129da82612b7b565b810181811067ffffffffffffffff821117156129f9576129f8612b38565b5b80604052505050565b6000612a0d82612953565b91507fffffffffffffffffffffffffffffffffffffffffffffffffffffffffffffffff821415612a4057612a3f612a7c565b5b600182019050919050565b6000612a5682612953565b9150612a6183612953565b925082612a7157612a70612aab565b5b828206905092915050565b7f4e487b7100000000000000000000000000000000000000000000000000000000600052601160045260246000fd5b7f4e487b7100000000000000000000000000000000000000000000000000000000600052601260045260246000fd5b7f4e487b7100000000000000000000000000000000000000000000000000000000600052602260045260246000fd5b7f4e487b7100000000000000000000000000000000000000000000000000000000600052603260045260246000fd5b7f4e487b7100000000000000000000000000000000000000000000000000000000600052604160045260246000fd5b600080fd5b600080fd5b600080fd5b600080fd5b6000601f19601f8301169050919050565b7f4552433732313a207472616e7366657220746f206e6f6e20455243373231526560008201527f63656976657220696d706c656d656e7465720000000000000000000000000000602082015250565b7f4f776e61626c653a206e6577206f776e657220697320746865207a65726f206160008201527f6464726573730000000000000000000000000000000000000000000000000000602082015250565b7f4552433732313a207472616e736665722066726f6d20696e636f72726563742060008201527f6f776e6572000000000000000000000000000000000000000000000000000000602082015250565b7f4552433732313a20746f6b656e20616c7265616479206d696e74656400000000600082015250565b7f4552433732313a207472616e7366657220746f20746865207a65726f2061646460008201527f7265737300000000000000000000000000000000000000000000000000000000602082015250565b7f4552433732313a20617070726f766520746f2063616c6c657200000000000000600082015250565b7f4552433732313a206f70657261746f7220717565727920666f72206e6f6e657860008201527f697374656e7420746f6b656e0000000000000000000000000000000000000000602082015250565b7f4552433732313a20617070726f76652063616c6c6572206973206e6f74206f7760008201527f6e6572206e6f7220617070726f76656420666f7220616c6c0000000000000000602082015250565b7f4552433732313a2062616c616e636520717565727920666f7220746865207a6560008201527f726f206164647265737300000000000000000000000000000000000000000000602082015250565b7f4552433732313a206f776e657220717565727920666f72206e6f6e657869737460008201527f656e7420746f6b656e0000000000000000000000000000000000000000000000602082015250565b7f45524337323155524953746f726167653a2055524920736574206f66206e6f6e60008201527f6578697374656e7420746f6b656e000000000000000000000000000000000000602082015250565b7f4552433732313a206d696e7420746f20746865207a65726f2061646472657373600082015250565b7f4552433732313a20617070726f76656420717565727920666f72206e6f6e657860008201527f697374656e7420746f6b656e0000000000000000000000000000000000000000602082015250565b7f2e6a736f6e000000000000000000000000000000000000000000000000000000600082015250565b7f4f776e61626c653a2063616c6c6572206973206e6f7420746865206f776e6572600082015250565b7f4552433732314d657461646174613a2055524920717565727920666f72206e6f60008201527f6e6578697374656e7420746f6b656e0000000000000000000000000000000000602082015250565b7f4552433732313a20617070726f76616c20746f2063757272656e74206f776e6560008201527f7200000000000000000000000000000000000000000000000000000000000000602082015250565b7f4552433732313a207472616e736665722063616c6c6572206973206e6f74206f60008201527f776e6572206e6f7220617070726f766564000000000000000000000000000000602082015250565b613065816128e9565b811461307057600080fd5b50565b61307c816128fb565b811461308757600080fd5b50565b61309381612907565b811461309e57600080fd5b50565b6130aa81612953565b81146130b557600080fd5b5056fea2646970667358221220ec1d07a84964ee023f718243dd60c5fb08550c6b3799c5575e1541db3df5150264736f6c63430008070033697066733a2f2f516d657871634c44766f5036484354745347756d4733797a685a64483867757656337a336b526543766632514b6e",
  "immutableReferences": {},
  "source": "// SPDX-License-Identifier: MIT\npragma solidity >=0.4.22 <0.9.0;\nimport \"@openzeppelin/contracts/token/ERC721/ERC721.sol\";\nimport \"@openzeppelin/contracts/utils/Counters.sol\";\nimport \"@openzeppelin/contracts/access/Ownable.sol\";\nimport \"@openzeppelin/contracts/token/ERC721/extensions/ERC721URIStorage.sol\";\n\ncontract MyNFT is ERC721URIStorage, Ownable {\n    using Counters for Counters.Counter;\n    Counters.Counter private _tokenIds;\n\n    using Strings for uint256;\n    bool private _blindBoxOpened = false;\n    string private _blindTokenURI =\n        \"ipfs://QmexqcLDvoP6HCTtSGumG3yzhZdH8guvV3z3kReCvf2QKn\"; // when the box hasn't open, it shows this metadata(tokenURI)\n\n    constructor() ERC721(\"MyNFT\", \"NFT\") {} //your NFT name and symbol\n\n    function _isBlindBoxOpened() internal view returns (bool) {\n        return _blindBoxOpened;\n    }\n\n    function setBlindBoxOpened(bool _status) public onlyOwner {\n        _blindBoxOpened = _status;\n    }\n\n    function mintNFT(address recipient, string memory URIstring)\n        public\n        onlyOwner\n    {\n        uint256 newItemId = _tokenIds.current();\n        _mint(recipient, newItemId);\n        _setTokenURI(newItemId, URIstring);\n        _tokenIds.increment();\n    }\n\n//after mint blind box NFT, there will be several NFT which tokenURI is default url,\n    function mintBlindBoxNFT(address recipient)\n        public\n    {\n        uint256 newItemId = _tokenIds.current();\n        _mint(recipient, newItemId);\n        _setTokenURI(newItemId, _blindTokenURI);\n        _tokenIds.increment();\n    }\n\n    // this function controls how the token URI is constructed\n    function tokenURI(uint256 tokenId)\n        public\n        view\n        virtual\n        override\n        returns (string memory)\n    {\n        require(\n            _exists(tokenId),\n            \"ERC721Metadata: URI query for nonexistent token\"\n        );\n        if (_blindBoxOpened) {\n            string memory baseURI = _baseURI();\n            return\n                bytes(baseURI).length > 0\n                    ? string(\n                        abi.encodePacked(baseURI, tokenId.toString(), \".json\")\n                    )\n                    : \"\";\n        } else {\n            return _blindTokenURI;\n        }\n    }\n}\n",
  "sourcePath": "/Users/leo/Desktop/NFT-blind-box/contracts/Mint_NFT.sol",
  "compiler": {
    "name": "solc",
    "version": "0.8.7+commit.e28d00a7.Emscripten.clang"
  },
  "schemaVersion": "3.4.5",
  "updatedAt": "2022-03-14T08:21:30.466Z",
  "networkType": "ethereum",
  "devdoc": {
    "kind": "dev",
    "methods": {
      "approve(address,uint256)": {
        "details": "See {IERC721-approve}."
      },
      "balanceOf(address)": {
        "details": "See {IERC721-balanceOf}."
      },
      "getApproved(uint256)": {
        "details": "See {IERC721-getApproved}."
      },
      "isApprovedForAll(address,address)": {
        "details": "See {IERC721-isApprovedForAll}."
      },
      "name()": {
        "details": "See {IERC721Metadata-name}."
      },
      "owner()": {
        "details": "Returns the address of the current owner."
      },
      "ownerOf(uint256)": {
        "details": "See {IERC721-ownerOf}."
      },
      "renounceOwnership()": {
        "details": "Leaves the contract without owner. It will not be possible to call `onlyOwner` functions anymore. Can only be called by the current owner. NOTE: Renouncing ownership will leave the contract without an owner, thereby removing any functionality that is only available to the owner."
      },
      "safeTransferFrom(address,address,uint256)": {
        "details": "See {IERC721-safeTransferFrom}."
      },
      "safeTransferFrom(address,address,uint256,bytes)": {
        "details": "See {IERC721-safeTransferFrom}."
      },
      "setApprovalForAll(address,bool)": {
        "details": "See {IERC721-setApprovalForAll}."
      },
      "supportsInterface(bytes4)": {
        "details": "See {IERC165-supportsInterface}."
      },
      "symbol()": {
        "details": "See {IERC721Metadata-symbol}."
      },
      "tokenURI(uint256)": {
        "details": "See {IERC721Metadata-tokenURI}."
      },
      "transferFrom(address,address,uint256)": {
        "details": "See {IERC721-transferFrom}."
      },
      "transferOwnership(address)": {
        "details": "Transfers ownership of the contract to a new account (`newOwner`). Can only be called by the current owner."
      }
    },
    "version": 1
  },
  "userdoc": {
    "kind": "user",
    "methods": {},
    "version": 1
  }
}