{
  "contractName": "NFT",
  "abi": [
    {
      "inputs": [
        {
          "internalType": "string",
          "name": "_name",
          "type": "string"
        },
        {
          "internalType": "string",
          "name": "_symbol",
          "type": "string"
        },
        {
          "internalType": "string",
          "name": "_initBaseURI",
          "type": "string"
        }
      ],
      "stateMutability": "nonpayable",
      "type": "constructor"
    },
    {
      "anonymous": false,
      "inputs": [
        {
          "indexed": true,
          "internalType": "address",
          "name": "owner",
          "type": "address"
        },
        {
          "indexed": true,
          "internalType": "address",
          "name": "approved",
          "type": "address"
        },
        {
          "indexed": true,
          "internalType": "uint256",
          "name": "tokenId",
          "type": "uint256"
        }
      ],
      "name": "Approval",
      "type": "event"
    },
    {
      "anonymous": false,
      "inputs": [
        {
          "indexed": true,
          "internalType": "address",
          "name": "owner",
          "type": "address"
        },
        {
          "indexed": true,
          "internalType": "address",
          "name": "operator",
          "type": "address"
        },
        {
          "indexed": false,
          "internalType": "bool",
          "name": "approved",
          "type": "bool"
        }
      ],
      "name": "ApprovalForAll",
      "type": "event"
    },
    {
      "anonymous": false,
      "inputs": [
        {
          "indexed": true,
          "internalType": "address",
          "name": "previousOwner",
          "type": "address"
        },
        {
          "indexed": true,
          "internalType": "address",
          "name": "newOwner",
          "type": "address"
        }
      ],
      "name": "OwnershipTransferred",
      "type": "event"
    },
    {
      "anonymous": false,
      "inputs": [
        {
          "indexed": true,
          "internalType": "address",
          "name": "from",
          "type": "address"
        },
        {
          "indexed": true,
          "internalType": "address",
          "name": "to",
          "type": "address"
        },
        {
          "indexed": true,
          "internalType": "uint256",
          "name": "tokenId",
          "type": "uint256"
        }
      ],
      "name": "Transfer",
      "type": "event"
    },
    {
      "inputs": [
        {
          "internalType": "address",
          "name": "to",
          "type": "address"
        },
        {
          "internalType": "uint256",
          "name": "tokenId",
          "type": "uint256"
        }
      ],
      "name": "approve",
      "outputs": [],
      "stateMutability": "nonpayable",
      "type": "function"
    },
    {
      "inputs": [
        {
          "internalType": "address",
          "name": "owner",
          "type": "address"
        }
      ],
      "name": "balanceOf",
      "outputs": [
        {
          "internalType": "uint256",
          "name": "",
          "type": "uint256"
        }
      ],
      "stateMutability": "view",
      "type": "function"
    },
    {
      "inputs": [],
      "name": "baseExtension",
      "outputs": [
        {
          "internalType": "string",
          "name": "",
          "type": "string"
        }
      ],
      "stateMutability": "view",
      "type": "function"
    },
    {
      "inputs": [],
      "name": "baseURI",
      "outputs": [
        {
          "internalType": "string",
          "name": "",
          "type": "string"
        }
      ],
      "stateMutability": "view",
      "type": "function"
    },
    {
      "inputs": [],
      "name": "cost",
      "outputs": [
        {
          "internalType": "uint256",
          "name": "",
          "type": "uint256"
        }
      ],
      "stateMutability": "view",
      "type": "function"
    },
    {
      "inputs": [
        {
          "internalType": "uint256",
          "name": "tokenId",
          "type": "uint256"
        }
      ],
      "name": "getApproved",
      "outputs": [
        {
          "internalType": "address",
          "name": "",
          "type": "address"
        }
      ],
      "stateMutability": "view",
      "type": "function"
    },
    {
      "inputs": [
        {
          "internalType": "address",
          "name": "owner",
          "type": "address"
        },
        {
          "internalType": "address",
          "name": "operator",
          "type": "address"
        }
      ],
      "name": "isApprovedForAll",
      "outputs": [
        {
          "internalType": "bool",
          "name": "",
          "type": "bool"
        }
      ],
      "stateMutability": "view",
      "type": "function"
    },
    {
      "inputs": [],
      "name": "maxMintAmount",
      "outputs": [
        {
          "internalType": "uint256",
          "name": "",
          "type": "uint256"
        }
      ],
      "stateMutability": "view",
      "type": "function"
    },
    {
      "inputs": [],
      "name": "maxSupply",
      "outputs": [
        {
          "internalType": "uint256",
          "name": "",
          "type": "uint256"
        }
      ],
      "stateMutability": "view",
      "type": "function"
    },
    {
      "inputs": [],
      "name": "name",
      "outputs": [
        {
          "internalType": "string",
          "name": "",
          "type": "string"
        }
      ],
      "stateMutability": "view",
      "type": "function"
    },
    {
      "inputs": [],
      "name": "owner",
      "outputs": [
        {
          "internalType": "address",
          "name": "",
          "type": "address"
        }
      ],
      "stateMutability": "view",
      "type": "function"
    },
    {
      "inputs": [
        {
          "internalType": "uint256",
          "name": "tokenId",
          "type": "uint256"
        }
      ],
      "name": "ownerOf",
      "outputs": [
        {
          "internalType": "address",
          "name": "",
          "type": "address"
        }
      ],
      "stateMutability": "view",
      "type": "function"
    },
    {
      "inputs": [],
      "name": "paused",
      "outputs": [
        {
          "internalType": "bool",
          "name": "",
          "type": "bool"
        }
      ],
      "stateMutability": "view",
      "type": "function"
    },
    {
      "inputs": [],
      "name": "renounceOwnership",
      "outputs": [],
      "stateMutability": "nonpayable",
      "type": "function"
    },
    {
      "inputs": [
        {
          "internalType": "address",
          "name": "from",
          "type": "address"
        },
        {
          "internalType": "address",
          "name": "to",
          "type": "address"
        },
        {
          "internalType": "uint256",
          "name": "tokenId",
          "type": "uint256"
        }
      ],
      "name": "safeTransferFrom",
      "outputs": [],
      "stateMutability": "nonpayable",
      "type": "function"
    },
    {
      "inputs": [
        {
          "internalType": "address",
          "name": "from",
          "type": "address"
        },
        {
          "internalType": "address",
          "name": "to",
          "type": "address"
        },
        {
          "internalType": "uint256",
          "name": "tokenId",
          "type": "uint256"
        },
        {
          "internalType": "bytes",
          "name": "_data",
          "type": "bytes"
        }
      ],
      "name": "safeTransferFrom",
      "outputs": [],
      "stateMutability": "nonpayable",
      "type": "function"
    },
    {
      "inputs": [
        {
          "internalType": "address",
          "name": "operator",
          "type": "address"
        },
        {
          "internalType": "bool",
          "name": "approved",
          "type": "bool"
        }
      ],
      "name": "setApprovalForAll",
      "outputs": [],
      "stateMutability": "nonpayable",
      "type": "function"
    },
    {
      "inputs": [
        {
          "internalType": "bytes4",
          "name": "interfaceId",
          "type": "bytes4"
        }
      ],
      "name": "supportsInterface",
      "outputs": [
        {
          "internalType": "bool",
          "name": "",
          "type": "bool"
        }
      ],
      "stateMutability": "view",
      "type": "function"
    },
    {
      "inputs": [],
      "name": "symbol",
      "outputs": [
        {
          "internalType": "string",
          "name": "",
          "type": "string"
        }
      ],
      "stateMutability": "view",
      "type": "function"
    },
    {
      "inputs": [
        {
          "internalType": "uint256",
          "name": "index",
          "type": "uint256"
        }
      ],
      "name": "tokenByIndex",
      "outputs": [
        {
          "internalType": "uint256",
          "name": "",
          "type": "uint256"
        }
      ],
      "stateMutability": "view",
      "type": "function"
    },
    {
      "inputs": [
        {
          "internalType": "address",
          "name": "owner",
          "type": "address"
        },
        {
          "internalType": "uint256",
          "name": "index",
          "type": "uint256"
        }
      ],
      "name": "tokenOfOwnerByIndex",
      "outputs": [
        {
          "internalType": "uint256",
          "name": "",
          "type": "uint256"
        }
      ],
      "stateMutability": "view",
      "type": "function"
    },
    {
      "inputs": [],
      "name": "totalSupply",
      "outputs": [
        {
          "internalType": "uint256",
          "name": "",
          "type": "uint256"
        }
      ],
      "stateMutability": "view",
      "type": "function"
    },
    {
      "inputs": [
        {
          "internalType": "address",
          "name": "from",
          "type": "address"
        },
        {
          "internalType": "address",
          "name": "to",
          "type": "address"
        },
        {
          "internalType": "uint256",
          "name": "tokenId",
          "type": "uint256"
        }
      ],
      "name": "transferFrom",
      "outputs": [],
      "stateMutability": "nonpayable",
      "type": "function"
    },
    {
      "inputs": [
        {
          "internalType": "address",
          "name": "newOwner",
          "type": "address"
        }
      ],
      "name": "transferOwnership",
      "outputs": [],
      "stateMutability": "nonpayable",
      "type": "function"
    },
    {
      "inputs": [
        {
          "internalType": "address",
          "name": "",
          "type": "address"
        }
      ],
      "name": "whitelisted",
      "outputs": [
        {
          "internalType": "bool",
          "name": "",
          "type": "bool"
        }
      ],
      "stateMutability": "view",
      "type": "function"
    },
    {
      "inputs": [
        {
          "internalType": "bool",
          "name": "_status",
          "type": "bool"
        }
      ],
      "name": "setBlindBoxOpened",
      "outputs": [],
      "stateMutability": "nonpayable",
      "type": "function"
    },
    {
      "inputs": [
        {
          "internalType": "address",
          "name": "_to",
          "type": "address"
        },
        {
          "internalType": "uint256",
          "name": "_mintAmount",
          "type": "uint256"
        }
      ],
      "name": "mint",
      "outputs": [],
      "stateMutability": "payable",
      "type": "function"
    },
    {
      "inputs": [
        {
          "internalType": "address",
          "name": "_owner",
          "type": "address"
        }
      ],
      "name": "walletOfOwner",
      "outputs": [
        {
          "internalType": "uint256[]",
          "name": "",
          "type": "uint256[]"
        }
      ],
      "stateMutability": "view",
      "type": "function"
    },
    {
      "inputs": [
        {
          "internalType": "uint256",
          "name": "tokenId",
          "type": "uint256"
        }
      ],
      "name": "tokenURI",
      "outputs": [
        {
          "internalType": "string",
          "name": "",
          "type": "string"
        }
      ],
      "stateMutability": "view",
      "type": "function"
    },
    {
      "inputs": [
        {
          "internalType": "uint256",
          "name": "_newCost",
          "type": "uint256"
        }
      ],
      "name": "setCost",
      "outputs": [],
      "stateMutability": "nonpayable",
      "type": "function"
    },
    {
      "inputs": [
        {
          "internalType": "uint256",
          "name": "_newmaxMintAmount",
          "type": "uint256"
        }
      ],
      "name": "setmaxMintAmount",
      "outputs": [],
      "stateMutability": "nonpayable",
      "type": "function"
    },
    {
      "inputs": [
        {
          "internalType": "string",
          "name": "_newBaseURI",
          "type": "string"
        }
      ],
      "name": "setBaseURI",
      "outputs": [],
      "stateMutability": "nonpayable",
      "type": "function"
    },
    {
      "inputs": [
        {
          "internalType": "string",
          "name": "_newBaseExtension",
          "type": "string"
        }
      ],
      "name": "setBaseExtension",
      "outputs": [],
      "stateMutability": "nonpayable",
      "type": "function"
    },
    {
      "inputs": [
        {
          "internalType": "bool",
          "name": "_state",
          "type": "bool"
        }
      ],
      "name": "pause",
      "outputs": [],
      "stateMutability": "nonpayable",
      "type": "function"
    },
    {
      "inputs": [
        {
          "internalType": "address",
          "name": "_user",
          "type": "address"
        }
      ],
      "name": "whitelistUser",
      "outputs": [],
      "stateMutability": "nonpayable",
      "type": "function"
    },
    {
      "inputs": [
        {
          "internalType": "address",
          "name": "_user",
          "type": "address"
        }
      ],
      "name": "removeWhitelistUser",
      "outputs": [],
      "stateMutability": "nonpayable",
      "type": "function"
    }
  ],
  "bytecode": "0x60c06040526005608081905264173539b7b760d91b60a09081526200002891600c919062000ab3565b5066b1a2bc2ec50000600d55612710600e55611388600f556010805460ff1990811690915560128054909116905560408051606081019091526035808252620037e660208301398051620000859160139160209091019062000ab3565b503480156200009357600080fd5b506040516200383b3803806200383b833981016040819052620000b69162000c1d565b825183908390620000cf90600090602085019062000ab3565b508051620000e590600190602084019062000ab3565b50505062000102620000fc6200012a60201b60201c565b6200012e565b6200010d8162000180565b6200012133600f54620001f960201b60201c565b50505062000e3d565b3390565b600a80546001600160a01b038381166001600160a01b0319831681179093556040519116919082907f8be0079c531659141344cd1fd0a4f28419497f9722a3daafe3b4186f6b6457e090600090a35050565b600a546001600160a01b03163314620001e05760405162461bcd60e51b815260206004820181905260248201527f4f776e61626c653a2063616c6c6572206973206e6f7420746865206f776e657260448201526064015b60405180910390fd5b8051620001f590600b90602084019062000ab3565b5050565b60006200020560085490565b60105490915060ff16156200024c5760405162461bcd60e51b815260206004820152600c60248201526b6861736e277420706175736560a01b6044820152606401620001d7565b600082116200029e5760405162461bcd60e51b815260206004820152601760248201527f5f6d696e74416d6f756e74206c657373207468656e20300000000000000000006044820152606401620001d7565b600f54821115620003015760405162461bcd60e51b815260206004820152602660248201527f6d61784d696e74416d6f756e74206973206c657373207468656e205f6d696e74604482015265105b5bdd5b9d60d21b6064820152608401620001d7565b600e5462000310838362000d04565b1115620003605760405162461bcd60e51b815260206004820152601860248201527f5f6d696e74416d6f756e7420697320746f6f206c6172676500000000000000006044820152606401620001d7565b600a546001600160a01b03163314620003f1573360009081526011602052604090205460ff161515600114620003f15781600d54620003a0919062000d1f565b341015620003f15760405162461bcd60e51b815260206004820152601460248201527f6d73672e76616c756520697320746f6f206c6f770000000000000000000000006044820152606401620001d7565b60015b828111620004285762000413846200040d838562000d04565b6200042e565b806200041f8162000dc7565b915050620003f4565b50505050565b620001f58282604051806020016040528060008152506200045060201b60201c565b6200045c8383620004c8565b6200046b60008484846200061e565b620004c35760405162461bcd60e51b815260206004820152603260248201526000805160206200381b83398151915260448201527131b2b4bb32b91034b6b83632b6b2b73a32b960711b6064820152608401620001d7565b505050565b6001600160a01b038216620005205760405162461bcd60e51b815260206004820181905260248201527f4552433732313a206d696e7420746f20746865207a65726f20616464726573736044820152606401620001d7565b6000818152600260205260409020546001600160a01b031615620005875760405162461bcd60e51b815260206004820152601c60248201527f4552433732313a20746f6b656e20616c7265616479206d696e746564000000006044820152606401620001d7565b620005956000838362000787565b6001600160a01b0382166000908152600360205260408120805460019290620005c090849062000d04565b909155505060008181526002602052604080822080546001600160a01b0319166001600160a01b03861690811790915590518392907fddf252ad1be2c89b69c2b068fc378daa952ba7f163c4a11628f55a4df523b3ef908290a45050565b60006200063f846001600160a01b03166200086360201b620017091760201c565b156200077b57604051630a85bd0160e11b81526001600160a01b0385169063150b7a02906200067990339089908890889060040162000cae565b602060405180830381600087803b1580156200069457600080fd5b505af1925050508015620006c7575060408051601f3d908101601f19168201909252620006c49181019062000bea565b60015b62000760573d808015620006f8576040519150601f19603f3d011682016040523d82523d6000602084013e620006fd565b606091505b508051620007585760405162461bcd60e51b815260206004820152603260248201526000805160206200381b83398151915260448201527131b2b4bb32b91034b6b83632b6b2b73a32b960711b6064820152608401620001d7565b805181602001fd5b6001600160e01b031916630a85bd0160e11b1490506200077f565b5060015b949350505050565b6200079f838383620004c360201b620009f91760201c565b6001600160a01b038316620007fd57620007f781600880546000838152600960205260408120829055600182018355919091527ff3f7a9fe364faab93b216da50a3214154f22a0a2b415b23a84c8169e8b636ee30155565b62000823565b816001600160a01b0316836001600160a01b031614620008235762000823838262000872565b6001600160a01b0382166200083d57620004c3816200091f565b826001600160a01b0316826001600160a01b031614620004c357620004c38282620009d9565b6001600160a01b03163b151590565b600060016200088c8462000a2a60201b620011b41760201c565b62000898919062000d41565b600083815260076020526040902054909150808214620008ec576001600160a01b03841660009081526006602090815260408083208584528252808320548484528184208190558352600790915290208190555b5060009182526007602090815260408084208490556001600160a01b039094168352600681528383209183525290812055565b600854600090620009339060019062000d41565b600083815260096020526040812054600880549394509092849081106200095e576200095e62000e11565b90600052602060002001549050806008838154811062000982576200098262000e11565b6000918252602080832090910192909255828152600990915260408082208490558582528120556008805480620009bd57620009bd62000dfb565b6001900381819060005260206000200160009055905550505050565b6000620009f18362000a2a60201b620011b41760201c565b6001600160a01b039093166000908152600660209081526040808320868452825280832085905593825260079052919091209190915550565b60006001600160a01b03821662000a975760405162461bcd60e51b815260206004820152602a60248201527f4552433732313a2062616c616e636520717565727920666f7220746865207a65604482015269726f206164647265737360b01b6064820152608401620001d7565b506001600160a01b031660009081526003602052604090205490565b82805462000ac19062000d8a565b90600052602060002090601f01602090048101928262000ae5576000855562000b30565b82601f1062000b0057805160ff191683800117855562000b30565b8280016001018555821562000b30579182015b8281111562000b3057825182559160200191906001019062000b13565b5062000b3e92915062000b42565b5090565b5b8082111562000b3e576000815560010162000b43565b600082601f83011262000b6b57600080fd5b81516001600160401b038082111562000b885762000b8862000e27565b604051601f8301601f19908116603f0116810190828211818310171562000bb35762000bb362000e27565b8160405283815286602085880101111562000bcd57600080fd5b62000be084602083016020890162000d5b565b9695505050505050565b60006020828403121562000bfd57600080fd5b81516001600160e01b03198116811462000c1657600080fd5b9392505050565b60008060006060848603121562000c3357600080fd5b83516001600160401b038082111562000c4b57600080fd5b62000c598783880162000b59565b9450602086015191508082111562000c7057600080fd5b62000c7e8783880162000b59565b9350604086015191508082111562000c9557600080fd5b5062000ca48682870162000b59565b9150509250925092565b600060018060a01b03808716835280861660208401525083604083015260806060830152825180608084015262000ced8160a085016020870162000d5b565b601f01601f19169190910160a00195945050505050565b6000821982111562000d1a5762000d1a62000de5565b500190565b600081600019048311821515161562000d3c5762000d3c62000de5565b500290565b60008282101562000d565762000d5662000de5565b500390565b60005b8381101562000d7857818101518382015260200162000d5e565b83811115620004285750506000910152565b600181811c9082168062000d9f57607f821691505b6020821081141562000dc157634e487b7160e01b600052602260045260246000fd5b50919050565b600060001982141562000dde5762000dde62000de5565b5060010190565b634e487b7160e01b600052601160045260246000fd5b634e487b7160e01b600052603160045260246000fd5b634e487b7160e01b600052603260045260246000fd5b634e487b7160e01b600052604160045260246000fd5b6129998062000e4d6000396000f3fe60806040526004361061024f5760003560e01c80635c975abb11610138578063b88d4fde116100b0578063d936547e1161007f578063e6a9e57711610064578063e6a9e57714610666578063e985e9c514610686578063f2fde38b146106cf57600080fd5b8063d936547e14610616578063da3ef23f1461064657600080fd5b8063b88d4fde146105ab578063c6682862146105cb578063c87b56dd146105e0578063d5abeb011461060057600080fd5b8063715018a6116101075780638da5cb5b116100ec5780638da5cb5b1461055857806395d89b4114610576578063a22cb4651461058b57600080fd5b8063715018a6146105235780637f00c7a61461053857600080fd5b80635c975abb146104b45780636352211e146104ce5780636c0360eb146104ee57806370a082311461050357600080fd5b80632f745c59116101cb578063438b63001161019a5780634a4c560d1161017f5780634a4c560d146104545780634f6ccce71461047457806355f804b31461049457600080fd5b8063438b63001461040757806344a0d68a1461043457600080fd5b80632f745c591461039457806330cc7ae0146103b457806340c10f19146103d457806342842e0e146103e757600080fd5b8063095ea7b31161022257806318160ddd1161020757806318160ddd14610349578063239c70ae1461035e57806323b872dd1461037457600080fd5b8063095ea7b31461030557806313faede61461032557600080fd5b806301ffc9a71461025457806302329a291461028957806306fdde03146102ab578063081812fc146102cd575b600080fd5b34801561026057600080fd5b5061027461026f366004612635565b6106ef565b60405190151581526020015b60405180910390f35b34801561029557600080fd5b506102a96102a436600461261a565b610733565b005b3480156102b757600080fd5b506102c06107a5565b60405161028091906127d4565b3480156102d957600080fd5b506102ed6102e83660046126b8565b610837565b6040516001600160a01b039091168152602001610280565b34801561031157600080fd5b506102a96103203660046125f0565b6108cc565b34801561033157600080fd5b5061033b600d5481565b604051908152602001610280565b34801561035557600080fd5b5060085461033b565b34801561036a57600080fd5b5061033b600f5481565b34801561038057600080fd5b506102a961038f36600461250e565b6109fe565b3480156103a057600080fd5b5061033b6103af3660046125f0565b610a85565b3480156103c057600080fd5b506102a96103cf3660046124c0565b610b2d565b6102a96103e23660046125f0565b610ba8565b3480156103f357600080fd5b506102a961040236600461250e565b610dec565b34801561041357600080fd5b506104276104223660046124c0565b610e07565b6040516102809190612790565b34801561044057600080fd5b506102a961044f3660046126b8565b610ea9565b34801561046057600080fd5b506102a961046f3660046124c0565b610f08565b34801561048057600080fd5b5061033b61048f3660046126b8565b610f86565b3480156104a057600080fd5b506102a96104af36600461266f565b61102a565b3480156104c057600080fd5b506010546102749060ff1681565b3480156104da57600080fd5b506102ed6104e93660046126b8565b61109b565b3480156104fa57600080fd5b506102c0611126565b34801561050f57600080fd5b5061033b61051e3660046124c0565b6111b4565b34801561052f57600080fd5b506102a961124e565b34801561054457600080fd5b506102a96105533660046126b8565b6112b4565b34801561056457600080fd5b50600a546001600160a01b03166102ed565b34801561058257600080fd5b506102c0611313565b34801561059757600080fd5b506102a96105a63660046125c6565b611322565b3480156105b757600080fd5b506102a96105c636600461254a565b61132d565b3480156105d757600080fd5b506102c06113b5565b3480156105ec57600080fd5b506102c06105fb3660046126b8565b6113c2565b34801561060c57600080fd5b5061033b600e5481565b34801561062257600080fd5b506102746106313660046124c0565b60116020526000908152604090205460ff1681565b34801561065257600080fd5b506102a961066136600461266f565b61154d565b34801561067257600080fd5b506102a961068136600461261a565b6115ba565b34801561069257600080fd5b506102746106a13660046124db565b6001600160a01b03918216600090815260056020908152604080832093909416825291909152205460ff1690565b3480156106db57600080fd5b506102a96106ea3660046124c0565b611627565b60006001600160e01b031982167f780e9d6300000000000000000000000000000000000000000000000000000000148061072d575061072d82611718565b92915050565b600a546001600160a01b031633146107925760405162461bcd60e51b815260206004820181905260248201527f4f776e61626c653a2063616c6c6572206973206e6f7420746865206f776e657260448201526064015b60405180910390fd5b6010805460ff1916911515919091179055565b6060600080546107b490612875565b80601f01602080910402602001604051908101604052809291908181526020018280546107e090612875565b801561082d5780601f106108025761010080835404028352916020019161082d565b820191906000526020600020905b81548152906001019060200180831161081057829003601f168201915b5050505050905090565b6000818152600260205260408120546001600160a01b03166108b05760405162461bcd60e51b815260206004820152602c60248201527f4552433732313a20617070726f76656420717565727920666f72206e6f6e657860448201526b34b9ba32b73a103a37b5b2b760a11b6064820152608401610789565b506000908152600460205260409020546001600160a01b031690565b60006108d78261109b565b9050806001600160a01b0316836001600160a01b031614156109615760405162461bcd60e51b815260206004820152602160248201527f4552433732313a20617070726f76616c20746f2063757272656e74206f776e6560448201527f72000000000000000000000000000000000000000000000000000000000000006064820152608401610789565b336001600160a01b038216148061097d575061097d81336106a1565b6109ef5760405162461bcd60e51b815260206004820152603860248201527f4552433732313a20617070726f76652063616c6c6572206973206e6f74206f7760448201527f6e6572206e6f7220617070726f76656420666f7220616c6c00000000000000006064820152608401610789565b6109f983836117b3565b505050565b610a08338261182e565b610a7a5760405162461bcd60e51b815260206004820152603160248201527f4552433732313a207472616e736665722063616c6c6572206973206e6f74206f60448201527f776e6572206e6f7220617070726f7665640000000000000000000000000000006064820152608401610789565b6109f9838383611925565b6000610a90836111b4565b8210610b045760405162461bcd60e51b815260206004820152602b60248201527f455243373231456e756d657261626c653a206f776e657220696e646578206f7560448201527f74206f6620626f756e64730000000000000000000000000000000000000000006064820152608401610789565b506001600160a01b03919091166000908152600660209081526040808320938352929052205490565b600a546001600160a01b03163314610b875760405162461bcd60e51b815260206004820181905260248201527f4f776e61626c653a2063616c6c6572206973206e6f7420746865206f776e65726044820152606401610789565b6001600160a01b03166000908152601160205260409020805460ff19169055565b6000610bb360085490565b60105490915060ff1615610c095760405162461bcd60e51b815260206004820152600c60248201527f6861736e277420706175736500000000000000000000000000000000000000006044820152606401610789565b60008211610c595760405162461bcd60e51b815260206004820152601760248201527f5f6d696e74416d6f756e74206c657373207468656e20300000000000000000006044820152606401610789565b600f54821115610cd15760405162461bcd60e51b815260206004820152602660248201527f6d61784d696e74416d6f756e74206973206c657373207468656e205f6d696e7460448201527f416d6f756e7400000000000000000000000000000000000000000000000000006064820152608401610789565b600e54610cde83836127e7565b1115610d2c5760405162461bcd60e51b815260206004820152601860248201527f5f6d696e74416d6f756e7420697320746f6f206c6172676500000000000000006044820152606401610789565b600a546001600160a01b03163314610db7573360009081526011602052604090205460ff161515600114610db75781600d54610d689190612813565b341015610db75760405162461bcd60e51b815260206004820152601460248201527f6d73672e76616c756520697320746f6f206c6f770000000000000000000000006044820152606401610789565b60015b828111610de657610dd484610dcf83856127e7565b611b0a565b80610dde816128b0565b915050610dba565b50505050565b6109f98383836040518060200160405280600081525061132d565b60606000610e14836111b4565b905060008167ffffffffffffffff811115610e3157610e31612937565b604051908082528060200260200182016040528015610e5a578160200160208202803683370190505b50905060005b82811015610ea157610e728582610a85565b828281518110610e8457610e84612921565b602090810291909101015280610e99816128b0565b915050610e60565b509392505050565b600a546001600160a01b03163314610f035760405162461bcd60e51b815260206004820181905260248201527f4f776e61626c653a2063616c6c6572206973206e6f7420746865206f776e65726044820152606401610789565b600d55565b600a546001600160a01b03163314610f625760405162461bcd60e51b815260206004820181905260248201527f4f776e61626c653a2063616c6c6572206973206e6f7420746865206f776e65726044820152606401610789565b6001600160a01b03166000908152601160205260409020805460ff19166001179055565b6000610f9160085490565b82106110055760405162461bcd60e51b815260206004820152602c60248201527f455243373231456e756d657261626c653a20676c6f62616c20696e646578206f60448201527f7574206f6620626f756e647300000000000000000000000000000000000000006064820152608401610789565b6008828154811061101857611018612921565b90600052602060002001549050919050565b600a546001600160a01b031633146110845760405162461bcd60e51b815260206004820181905260248201527f4f776e61626c653a2063616c6c6572206973206e6f7420746865206f776e65726044820152606401610789565b805161109790600b90602084019061238a565b5050565b6000818152600260205260408120546001600160a01b03168061072d5760405162461bcd60e51b815260206004820152602960248201527f4552433732313a206f776e657220717565727920666f72206e6f6e657869737460448201527f656e7420746f6b656e00000000000000000000000000000000000000000000006064820152608401610789565b600b805461113390612875565b80601f016020809104026020016040519081016040528092919081815260200182805461115f90612875565b80156111ac5780601f10611181576101008083540402835291602001916111ac565b820191906000526020600020905b81548152906001019060200180831161118f57829003601f168201915b505050505081565b60006001600160a01b0382166112325760405162461bcd60e51b815260206004820152602a60248201527f4552433732313a2062616c616e636520717565727920666f7220746865207a6560448201527f726f2061646472657373000000000000000000000000000000000000000000006064820152608401610789565b506001600160a01b031660009081526003602052604090205490565b600a546001600160a01b031633146112a85760405162461bcd60e51b815260206004820181905260248201527f4f776e61626c653a2063616c6c6572206973206e6f7420746865206f776e65726044820152606401610789565b6112b26000611b24565b565b600a546001600160a01b0316331461130e5760405162461bcd60e51b815260206004820181905260248201527f4f776e61626c653a2063616c6c6572206973206e6f7420746865206f776e65726044820152606401610789565b600f55565b6060600180546107b490612875565b611097338383611b83565b611337338361182e565b6113a95760405162461bcd60e51b815260206004820152603160248201527f4552433732313a207472616e736665722063616c6c6572206973206e6f74206f60448201527f776e6572206e6f7220617070726f7665640000000000000000000000000000006064820152608401610789565b610de684848484611c52565b600c805461113390612875565b6000818152600260205260409020546060906001600160a01b031661144f5760405162461bcd60e51b815260206004820152602f60248201527f4552433732314d657461646174613a2055524920717565727920666f72206e6f60448201527f6e6578697374656e7420746f6b656e00000000000000000000000000000000006064820152608401610789565b60125460ff16156114b6576000611464611cd0565b9050600081511161148457604051806020016040528060008152506114af565b8061148e84611cdf565b60405160200161149f9291906126fd565b6040516020818303038152906040525b9392505050565b601380546114c390612875565b80601f01602080910402602001604051908101604052809291908181526020018280546114ef90612875565b801561153c5780601f106115115761010080835404028352916020019161153c565b820191906000526020600020905b81548152906001019060200180831161151f57829003601f168201915b50505050509050919050565b919050565b600a546001600160a01b031633146115a75760405162461bcd60e51b815260206004820181905260248201527f4f776e61626c653a2063616c6c6572206973206e6f7420746865206f776e65726044820152606401610789565b805161109790600c90602084019061238a565b600a546001600160a01b031633146116145760405162461bcd60e51b815260206004820181905260248201527f4f776e61626c653a2063616c6c6572206973206e6f7420746865206f776e65726044820152606401610789565b6012805460ff1916911515919091179055565b600a546001600160a01b031633146116815760405162461bcd60e51b815260206004820181905260248201527f4f776e61626c653a2063616c6c6572206973206e6f7420746865206f776e65726044820152606401610789565b6001600160a01b0381166116fd5760405162461bcd60e51b815260206004820152602660248201527f4f776e61626c653a206e6577206f776e657220697320746865207a65726f206160448201527f64647265737300000000000000000000000000000000000000000000000000006064820152608401610789565b61170681611b24565b50565b6001600160a01b03163b151590565b60006001600160e01b031982167f80ac58cd00000000000000000000000000000000000000000000000000000000148061177b57506001600160e01b031982167f5b5e139f00000000000000000000000000000000000000000000000000000000145b8061072d57507f01ffc9a7000000000000000000000000000000000000000000000000000000006001600160e01b031983161461072d565b6000818152600460205260409020805473ffffffffffffffffffffffffffffffffffffffff19166001600160a01b03841690811790915581906117f58261109b565b6001600160a01b03167f8c5be1e5ebec7d5bd14f71427d1e84f3dd0314c0f7b2291e5b200ac8c7c3b92560405160405180910390a45050565b6000818152600260205260408120546001600160a01b03166118a75760405162461bcd60e51b815260206004820152602c60248201527f4552433732313a206f70657261746f7220717565727920666f72206e6f6e657860448201526b34b9ba32b73a103a37b5b2b760a11b6064820152608401610789565b60006118b28361109b565b9050806001600160a01b0316846001600160a01b031614806118ed5750836001600160a01b03166118e284610837565b6001600160a01b0316145b8061191d57506001600160a01b0380821660009081526005602090815260408083209388168352929052205460ff165b949350505050565b826001600160a01b03166119388261109b565b6001600160a01b0316146119b45760405162461bcd60e51b815260206004820152602560248201527f4552433732313a207472616e736665722066726f6d20696e636f72726563742060448201527f6f776e65720000000000000000000000000000000000000000000000000000006064820152608401610789565b6001600160a01b038216611a2f5760405162461bcd60e51b8152602060048201526024808201527f4552433732313a207472616e7366657220746f20746865207a65726f2061646460448201527f72657373000000000000000000000000000000000000000000000000000000006064820152608401610789565b611a3a838383611e11565b611a456000826117b3565b6001600160a01b0383166000908152600360205260408120805460019290611a6e908490612832565b90915550506001600160a01b0382166000908152600360205260408120805460019290611a9c9084906127e7565b9091555050600081815260026020526040808220805473ffffffffffffffffffffffffffffffffffffffff19166001600160a01b0386811691821790925591518493918716917fddf252ad1be2c89b69c2b068fc378daa952ba7f163c4a11628f55a4df523b3ef91a4505050565b611097828260405180602001604052806000815250611ec9565b600a80546001600160a01b0383811673ffffffffffffffffffffffffffffffffffffffff19831681179093556040519116919082907f8be0079c531659141344cd1fd0a4f28419497f9722a3daafe3b4186f6b6457e090600090a35050565b816001600160a01b0316836001600160a01b03161415611be55760405162461bcd60e51b815260206004820152601960248201527f4552433732313a20617070726f766520746f2063616c6c6572000000000000006044820152606401610789565b6001600160a01b03838116600081815260056020908152604080832094871680845294825291829020805460ff191686151590811790915591519182527f17307eab39ab6107e8899845ad3d59bd9653f200f220920489ca2b5937696c31910160405180910390a3505050565b611c5d848484611925565b611c6984848484611f47565b610de65760405162461bcd60e51b815260206004820152603260248201527f4552433732313a207472616e7366657220746f206e6f6e20455243373231526560448201527131b2b4bb32b91034b6b83632b6b2b73a32b960711b6064820152608401610789565b6060600b80546107b490612875565b606081611d1f57505060408051808201909152600181527f3000000000000000000000000000000000000000000000000000000000000000602082015290565b8160005b8115611d495780611d33816128b0565b9150611d429050600a836127ff565b9150611d23565b60008167ffffffffffffffff811115611d6457611d64612937565b6040519080825280601f01601f191660200182016040528015611d8e576020820181803683370190505b5090505b841561191d57611da3600183612832565b9150611db0600a866128cb565b611dbb9060306127e7565b60f81b818381518110611dd057611dd0612921565b60200101907effffffffffffffffffffffffffffffffffffffffffffffffffffffffffffff1916908160001a905350611e0a600a866127ff565b9450611d92565b6001600160a01b038316611e6c57611e6781600880546000838152600960205260408120829055600182018355919091527ff3f7a9fe364faab93b216da50a3214154f22a0a2b415b23a84c8169e8b636ee30155565b611e8f565b816001600160a01b0316836001600160a01b031614611e8f57611e8f838261209f565b6001600160a01b038216611ea6576109f98161213c565b826001600160a01b0316826001600160a01b0316146109f9576109f982826121eb565b611ed3838361222f565b611ee06000848484611f47565b6109f95760405162461bcd60e51b815260206004820152603260248201527f4552433732313a207472616e7366657220746f206e6f6e20455243373231526560448201527131b2b4bb32b91034b6b83632b6b2b73a32b960711b6064820152608401610789565b60006001600160a01b0384163b1561209457604051630a85bd0160e11b81526001600160a01b0385169063150b7a0290611f8b903390899088908890600401612754565b602060405180830381600087803b158015611fa557600080fd5b505af1925050508015611fd5575060408051601f3d908101601f19168201909252611fd291810190612652565b60015b61207a573d808015612003576040519150601f19603f3d011682016040523d82523d6000602084013e612008565b606091505b5080516120725760405162461bcd60e51b815260206004820152603260248201527f4552433732313a207472616e7366657220746f206e6f6e20455243373231526560448201527131b2b4bb32b91034b6b83632b6b2b73a32b960711b6064820152608401610789565b805181602001fd5b6001600160e01b031916630a85bd0160e11b14905061191d565b506001949350505050565b600060016120ac846111b4565b6120b69190612832565b600083815260076020526040902054909150808214612109576001600160a01b03841660009081526006602090815260408083208584528252808320548484528184208190558352600790915290208190555b5060009182526007602090815260408084208490556001600160a01b039094168352600681528383209183525290812055565b60085460009061214e90600190612832565b6000838152600960205260408120546008805493945090928490811061217657612176612921565b90600052602060002001549050806008838154811061219757612197612921565b60009182526020808320909101929092558281526009909152604080822084905585825281205560088054806121cf576121cf61290b565b6001900381819060005260206000200160009055905550505050565b60006121f6836111b4565b6001600160a01b039093166000908152600660209081526040808320868452825280832085905593825260079052919091209190915550565b6001600160a01b0382166122855760405162461bcd60e51b815260206004820181905260248201527f4552433732313a206d696e7420746f20746865207a65726f20616464726573736044820152606401610789565b6000818152600260205260409020546001600160a01b0316156122ea5760405162461bcd60e51b815260206004820152601c60248201527f4552433732313a20746f6b656e20616c7265616479206d696e746564000000006044820152606401610789565b6122f660008383611e11565b6001600160a01b038216600090815260036020526040812080546001929061231f9084906127e7565b9091555050600081815260026020526040808220805473ffffffffffffffffffffffffffffffffffffffff19166001600160a01b03861690811790915590518392907fddf252ad1be2c89b69c2b068fc378daa952ba7f163c4a11628f55a4df523b3ef908290a45050565b82805461239690612875565b90600052602060002090601f0160209004810192826123b857600085556123fe565b82601f106123d157805160ff19168380011785556123fe565b828001600101855582156123fe579182015b828111156123fe5782518255916020019190600101906123e3565b5061240a92915061240e565b5090565b5b8082111561240a576000815560010161240f565b600067ffffffffffffffff8084111561243e5761243e612937565b604051601f8501601f19908116603f0116810190828211818310171561246657612466612937565b8160405280935085815286868601111561247f57600080fd5b858560208301376000602087830101525050509392505050565b80356001600160a01b038116811461154857600080fd5b8035801515811461154857600080fd5b6000602082840312156124d257600080fd5b6114af82612499565b600080604083850312156124ee57600080fd5b6124f783612499565b915061250560208401612499565b90509250929050565b60008060006060848603121561252357600080fd5b61252c84612499565b925061253a60208501612499565b9150604084013590509250925092565b6000806000806080858703121561256057600080fd5b61256985612499565b935061257760208601612499565b925060408501359150606085013567ffffffffffffffff81111561259a57600080fd5b8501601f810187136125ab57600080fd5b6125ba87823560208401612423565b91505092959194509250565b600080604083850312156125d957600080fd5b6125e283612499565b9150612505602084016124b0565b6000806040838503121561260357600080fd5b61260c83612499565b946020939093013593505050565b60006020828403121561262c57600080fd5b6114af826124b0565b60006020828403121561264757600080fd5b81356114af8161294d565b60006020828403121561266457600080fd5b81516114af8161294d565b60006020828403121561268157600080fd5b813567ffffffffffffffff81111561269857600080fd5b8201601f810184136126a957600080fd5b61191d84823560208401612423565b6000602082840312156126ca57600080fd5b5035919050565b600081518084526126e9816020860160208601612849565b601f01601f19169290920160200192915050565b6000835161270f818460208801612849565b835190830190612723818360208801612849565b7f2e6a736f6e0000000000000000000000000000000000000000000000000000009101908152600501949350505050565b60006001600160a01b0380871683528086166020840152508360408301526080606083015261278660808301846126d1565b9695505050505050565b6020808252825182820181905260009190848201906040850190845b818110156127c8578351835292840192918401916001016127ac565b50909695505050505050565b6020815260006114af60208301846126d1565b600082198211156127fa576127fa6128df565b500190565b60008261280e5761280e6128f5565b500490565b600081600019048311821515161561282d5761282d6128df565b500290565b600082821015612844576128446128df565b500390565b60005b8381101561286457818101518382015260200161284c565b83811115610de65750506000910152565b600181811c9082168061288957607f821691505b602082108114156128aa57634e487b7160e01b600052602260045260246000fd5b50919050565b60006000198214156128c4576128c46128df565b5060010190565b6000826128da576128da6128f5565b500690565b634e487b7160e01b600052601160045260246000fd5b634e487b7160e01b600052601260045260246000fd5b634e487b7160e01b600052603160045260246000fd5b634e487b7160e01b600052603260045260246000fd5b634e487b7160e01b600052604160045260246000fd5b6001600160e01b03198116811461170657600080fdfea2646970667358221220e40ad4357d121f4a14ab3ee21da6152e299781393e6096096c4735be2c8f9bcd64736f6c63430008070033697066733a2f2f516d657871634c44766f5036484354745347756d4733797a685a64483867757656337a336b526543766632514b6e4552433732313a207472616e7366657220746f206e6f6e204552433732315265",
  "immutableReferences": {},
  "source": "// SPDX-License-Identifier: GPL-3.0\n\n// Amended by HashLips\n/**\n    !Disclaimer!\n    These contracts have been used to create tutorials,\n    and was created for the purpose to teach people\n    how to create smart contracts on the blockchain.\n    please review this code on your own before using any of\n    the following code for production.\n    HashLips will not be liable in any way if for the use \n    of the code. That being said, the code has been tested \n    to the best of the developers' knowledge to work as intended.\n*/\n\npragma solidity >=0.7.0 <0.9.0;\n\nimport \"@openzeppelin/contracts/token/ERC721/extensions/ERC721Enumerable.sol\";\nimport \"@openzeppelin/contracts/access/Ownable.sol\";\n\ncontract NFT is ERC721Enumerable, Ownable {\n    using Strings for uint256;\n\n    string public baseURI;\n    string public baseExtension = \".json\";\n    uint256 public cost = 0.05 ether;\n    uint256 public maxSupply = 10000;\n    uint256 public maxMintAmount = 5000;\n    bool public paused = false;\n    mapping(address => bool) public whitelisted;\n\n    bool private _blindBoxOpened = false;\n    string private _blindTokenURI =\n        \"ipfs://QmexqcLDvoP6HCTtSGumG3yzhZdH8guvV3z3kReCvf2QKn\";\n\n    function _isBlindBoxOpened() internal view returns (bool) {\n        return _blindBoxOpened;\n    }\n\n    function setBlindBoxOpened(bool _status) public onlyOwner {\n        _blindBoxOpened = _status;\n    }\n\n    constructor(\n        string memory _name,\n        string memory _symbol,\n        string memory _initBaseURI\n    ) ERC721(_name, _symbol) {\n        setBaseURI(_initBaseURI);\n        mint(msg.sender, maxMintAmount);\n    }\n\n    // internal\n    function _baseURI() internal view virtual override returns (string memory) {\n        return baseURI;\n    }\n\n    // public\n    function mint(address _to, uint256 _mintAmount) public payable {\n        uint256 supply = totalSupply();\n        require(!paused, \"hasn't pause\");\n        require(_mintAmount > 0, \"_mintAmount less then 0\");\n        require(\n            _mintAmount <= maxMintAmount,\n            \"maxMintAmount is less then _mintAmount\"\n        );\n        require(supply + _mintAmount <= maxSupply, \"_mintAmount is too large\");\n\n        if (msg.sender != owner()) {\n            if (whitelisted[msg.sender] != true) {\n                require(\n                    msg.value >= cost * _mintAmount,\n                    \"msg.value is too low\"\n                );\n            }\n        }\n\n        for (uint256 i = 1; i <= _mintAmount; i++) {\n            _safeMint(_to, supply + i);\n        }\n    }\n\n    function walletOfOwner(address _owner)\n        public\n        view\n        returns (uint256[] memory)\n    {\n        uint256 ownerTokenCount = balanceOf(_owner);\n        uint256[] memory tokenIds = new uint256[](ownerTokenCount);\n        for (uint256 i; i < ownerTokenCount; i++) {\n            tokenIds[i] = tokenOfOwnerByIndex(_owner, i);\n        }\n        return tokenIds;\n    }\n\n    function tokenURI(uint256 tokenId)\n        public\n        view\n        virtual\n        override\n        returns (string memory)\n    {\n        require(\n            _exists(tokenId),\n            \"ERC721Metadata: URI query for nonexistent token\"\n        );\n\n        // string memory currentBaseURI = _baseURI();\n        // return bytes(currentBaseURI).length > 0\n        //     ? string(abi.encodePacked(currentBaseURI, tokenId.toString(), baseExtension))\n        //     : \"\";\n\n        if (_blindBoxOpened) {\n            string memory currentBaseURI = _baseURI();\n            return\n                bytes(currentBaseURI).length > 0\n                    ? string(\n                        abi.encodePacked(\n                            currentBaseURI,\n                            tokenId.toString(),\n                            \".json\"\n                        )\n                    )\n                    : \"\";\n        } else {\n            return _blindTokenURI;\n        }\n    }\n\n    //only owner\n    function setCost(uint256 _newCost) public onlyOwner {\n        cost = _newCost;\n    }\n\n    function setmaxMintAmount(uint256 _newmaxMintAmount) public onlyOwner {\n        maxMintAmount = _newmaxMintAmount;\n    }\n\n    function setBaseURI(string memory _newBaseURI) public onlyOwner {\n        baseURI = _newBaseURI;\n    }\n\n    function setBaseExtension(string memory _newBaseExtension)\n        public\n        onlyOwner\n    {\n        baseExtension = _newBaseExtension;\n    }\n\n    function pause(bool _state) public onlyOwner {\n        paused = _state;\n    }\n\n    function whitelistUser(address _user) public onlyOwner {\n        whitelisted[_user] = true;\n    }\n\n    function removeWhitelistUser(address _user) public onlyOwner {\n        whitelisted[_user] = false;\n    }\n}\n",
  "sourcePath": "/Users/leo/Desktop/NFT-blind-box/contracts/Mint_NFT.sol",
  "compiler": {
    "name": "solc",
    "version": "0.8.7+commit.e28d00a7.Emscripten.clang"
  },
  "schemaVersion": "3.4.5",
  "updatedAt": "2022-03-17T11:19:19.410Z",
  "devdoc": {
    "kind": "dev",
    "methods": {
      "approve(address,uint256)": {
        "details": "See {IERC721-approve}."
      },
      "balanceOf(address)": {
        "details": "See {IERC721-balanceOf}."
      },
      "getApproved(uint256)": {
        "details": "See {IERC721-getApproved}."
      },
      "isApprovedForAll(address,address)": {
        "details": "See {IERC721-isApprovedForAll}."
      },
      "name()": {
        "details": "See {IERC721Metadata-name}."
      },
      "owner()": {
        "details": "Returns the address of the current owner."
      },
      "ownerOf(uint256)": {
        "details": "See {IERC721-ownerOf}."
      },
      "renounceOwnership()": {
        "details": "Leaves the contract without owner. It will not be possible to call `onlyOwner` functions anymore. Can only be called by the current owner. NOTE: Renouncing ownership will leave the contract without an owner, thereby removing any functionality that is only available to the owner."
      },
      "safeTransferFrom(address,address,uint256)": {
        "details": "See {IERC721-safeTransferFrom}."
      },
      "safeTransferFrom(address,address,uint256,bytes)": {
        "details": "See {IERC721-safeTransferFrom}."
      },
      "setApprovalForAll(address,bool)": {
        "details": "See {IERC721-setApprovalForAll}."
      },
      "supportsInterface(bytes4)": {
        "details": "See {IERC165-supportsInterface}."
      },
      "symbol()": {
        "details": "See {IERC721Metadata-symbol}."
      },
      "tokenByIndex(uint256)": {
        "details": "See {IERC721Enumerable-tokenByIndex}."
      },
      "tokenOfOwnerByIndex(address,uint256)": {
        "details": "See {IERC721Enumerable-tokenOfOwnerByIndex}."
      },
      "tokenURI(uint256)": {
        "details": "See {IERC721Metadata-tokenURI}."
      },
      "totalSupply()": {
        "details": "See {IERC721Enumerable-totalSupply}."
      },
      "transferFrom(address,address,uint256)": {
        "details": "See {IERC721-transferFrom}."
      },
      "transferOwnership(address)": {
        "details": "Transfers ownership of the contract to a new account (`newOwner`). Can only be called by the current owner."
      }
    },
    "version": 1
  },
  "userdoc": {
    "kind": "user",
    "methods": {},
    "version": 1
  }
}